:020000040800F2
:1000000058490020190300084F4C000859450008C2
:100010004D4C0008FD2200080359000800000000B4
:10002000000000000000000000000000590200086D
:10003000C923000800000000B5020008894D00082F
:1000400033030008330300083303000833030008B8
:1000500033030008330300083303000833030008A8
:100060003303000833030008330300083303000898
:100070003303000801230008330300080D230008A0
:100080003303000833030008330300083303000878
:100090003303000833030008330300083303000868
:1000A0003303000833030008330300083303000858
:1000B0003303000833030008330300083303000848
:1000C0003303000833030008330300083303000838
:1000D0003303000833030008330300083303000828
:1000E0003303000833030008330300083303000818
:1000F0003303000833030008330300083303000808
:1001000033030008330300083303000833030008F7
:100110001D56000833030008194F00083303000878
:1001200019230008330300083303000833030008D1
:1001300033030008330300083303000833030008C7
:1001400033030008330300083303000833030008B7
:1001500033030008330300083303000833030008A7
:100160003303000833030008330300083303000897
:1001700033030008330300083303000800000000C5
:10018000330300083303000800F002F800F055F8CC
:100190000AA090E8000C82448344AAF10107DA45E2
:1001A00001D100F04AF8AFF2090EBAE80F0013F0DF
:1001B000010F18BFFB1A43F00103184750810000DC
:1001C00070810000103A24BF78C878C1FAD852076D
:1001D00024BF30C830C144BF04680C6070470000C1
:1001E0000023002400250026103A28BF78C1FBD840
:1001F000520728BF30C148BF0B607047662907F01F
:100200006687642900F05C81782900F095810020E0
:1002100070471FB507F051FF00F0E4FE0400002016
:10022000002107F031FA401C60600020002107F037
:1002300015FAE0601FBD10B510BD01F099F9114627
:10024000FFF7E7FF05F00EFF01F0C0F903B4FFF779
:10025000F2FF03BC01F004FA2C4B19680868B0E8FF
:10026000F04F80F30988BFF36F8F4FF0000080F3E9
:10027000118870470000000008480068006880F39B
:1002800008884FF0000080F3148862B661B6BFF3AF
:100290004F8FBFF36F8F00DF00BF00BF08ED00E09E
:1002A000DFF80C00016841F470010160704700BF85
:1002B00088ED00E0EFF30980BFF36F8F134B1A68EE
:1002C0001EF0100F08BF20ED108A20E9F04F1060DB
:1002D00009B44FF0500080F31188BFF34F8FBFF384
:1002E0006F8F06F019FC4FF0000080F3118809BCF5
:1002F00019680868B0E8F04F1EF0100F08BFB0ECA6
:10030000108A80F30988BFF36F8F704724000020A4
:10031000EFF305807047000009488047094800470F
:10032000FEE7FEE7FEE7FEE7FEE7FEE7FEE7FEE7A5
:10033000FEE7FEE704480549054A064B7047000002
:100340004D4E0008890100085843002058490020FC
:10035000584500205845002053EA020C00F06980FF
:100360002DE9F04B4FF00006002B1FBFB3FA83F5C9
:1003700003FA05F424FA05F65E4012BF1643B2FAFA
:1003800082F502FA05F4C5F120051EBF22FA05FC2C
:1003900044EA0C04203556EA044C4FEA144418BFD2
:1003A000641C4FF000084FF00009904271EB030C01
:1003B00039D3002919BFB1FA81F701FA07F6B0FA6B
:1003C00080F700FA07F6C7F120071EBF20FA07FCE6
:1003D00046EA0C062037B6FBF4FCA7EB0507103FF6
:1003E00007F01F0BCBF120060CFA0BFB2CFA06F6DC
:1003F00044BFB3460026202FA4BF5E464FF0000B3B
:100400005BEA060C08BF4FF0010B19EB0B09ABFBC5
:10041000027C48EB0608C01B06FB02CC0BFB03CC9E
:1004200071EB0C01C1E70B46024641464846BDE868
:10043000F08B13B54FF000004FF00001AFF30080D8
:10044000BDE81C40704700000FB41CB5074B06AA5E
:100450007B4469460090059800F067FD00206946DE
:1004600000F076FD1CBC5DF814FB0000FD0A0000E6
:1004700070B5044685690068C10601D5302600E0E4
:100480002026C00707D070BDD4E90121304690472F
:10049000206A401C20626D1EF6D570BD70B5044602
:1004A00085690078C00707D170BDD4E901212020FB
:1004B0009047206A401C20626D1EF6D570BD00007A
:1004C0002DE9F0410646002410687529314616A52D
:1004D00010D0AFF30080002802DA404213A507E0F5
:1004E00031688A0701D512A502E0490704D511A594
:1004F000012401E0AFF3008000210A2206F1240765
:1005000009E0B0FBF2FCB0FBF2F302FB1C00303060
:1005100078541846491C0028F3D123462A46304611
:10052000BDE8F04100F093BA000000002D0000008B
:100530002B0000002000000070B504460D46214647
:100540001068AFF300802188090502D50F4A7A446C
:1005500002E00E4A7A440E32002104F1240305E041
:1005600000F00F060009965D5E54491C0028F7D183
:1005700020780023000704D5702D02D009B1022392
:1005800011322046BDE8704000F061BA2B7C0000BB
:100590002DE9F05F894604464FF0000ADFF824B1E8
:1005A000FB44C0F820A02046E168884700287DD0A1
:1005B000252806D0D4E901219047206A401C2062FA
:1005C000F1E700255F462046E16888472028064677
:1005D00007DB312E05D2B81910F8200C08B10543FD
:1005E000F1E7A80701D525F00405C4F81CA00027F1
:1005F000C4F818A02A2E09D0304605F041FC38B3C3
:1006000004EB8708303EC8F8186019E059F8041B5D
:10061000204604EB87029161E1688847012F064676
:1006200018D1E069002820DA25F020051DE0D8F86F
:10063000180000EB800006EB40003038C8F81800C6
:100640002046E1688847064605F01AFC0028EED1EE
:10065000012F0AD02E2E08D12046E16888477F1C42
:100660000646022F45F02005C4DBA069002803DA06
:10067000404245F00105A061E80701D025F01005D2
:10068000A6B1A6F14100192802D8203645F400652C
:100690004A463146204625604D46FFF7AFFD60B122
:1006A000012807D0ED1D25F0070000E007E000F16C
:1006B000080978E705F1040975E730467AE7206A0A
:1006C000BDE8F09F017C00000FB400B58DB010A90B
:1006D000099000910B904FF0FF300A9000200C9091
:1006E000064878440690064878446A4607900F9971
:1006F00009A800F047FC0DB05DF814FBBF0800002E
:10070000D70800002DE9FF5F1D464FF0FF3B9146E3
:100710004FF000085F46D5E90146A96901987F1CA2
:100720008847296A824688470028F6D1BAF1FF3FF8
:100730000CD0002E24F4C06419DD600614D5BAF183
:100740002B0F09D0BAF12D0F0ED103E0584604B09B
:10075000BDE8F09F44F48064A96901987F1C884734
:10076000761E8246002E02DDBAF1300F03D0B9F1B9
:10077000000F26D032E0A969761E01987F1C44F450
:1007800000748847002E824605DDBAF1780F06D046
:10079000BAF1580F03D0B9F1000F10D01EE0B9F133
:1007A000000F02D0B9F1100F18D1A969761E019877
:1007B0007F1C24F4007488478246102002E0082041
:1007C00000E00A20814609E0A96908FB0908761EB5
:1007D00001987F1C44F4007488478246002E05DD92
:1007E0004946504600F0B9FB0028EDDAE969019866
:1007F0008847A00502D46FF00100A8E7E00725D1E3
:10080000600613D5600502D5C8F1000000E040463F
:1008100029680A1D2A600968220501D5087015E0BB
:10082000220701D5088011E008600FE02868011D4B
:1008300029600068210502D580F8008006E02107C4
:1008400002D5A0F8008001E0C0F8008038467EE7BD
:1008500030B505460B462A4613F8014B12F8010B3A
:1008600008B1A042F8D01CB1002802D06D1CF1E7FD
:10087000284630BD10B5431C02E010F8011B71B1D1
:100880008107FAD14FF0013202C88C1A8C4314EA66
:10089000C211F9D0C01A0A0603D0C01E10BDC01A7A
:1008A00010BD0A0401D0801E10BD0902FCD0401EFC
:1008B00010BD032A40F2308010F0030C00F01580C8
:1008C00011F8013BBCF1020F624498BF11F801CB53
:1008D00000F8013B38BF11F8013BA2F1040298BFB8
:1008E00000F801CB38BF00F8013B11F0030300F022
:1008F0002580083AC0F0088051F8043B083A51F8C6
:1009000004CBA0E80810F5E7121D5CBF51F8043BCA
:1009100040F8043BAFF30080D20724BF11F8013B3D
:1009200011F801CB48BF11F8012B24BF00F8013B9F
:1009300000F801CB48BF00F8012B704710B5203AF2
:10094000C0F00B80B1E81850203AA0E81850B1E888
:100950001850A0E81850BFF4F5AF5FEA027C24BF3E
:10096000B1E81850A0E8185044BF18C918C0BDE835
:1009700010405FEA827C24BF51F8043B40F8043BFE
:1009800008BF7047D20728BF31F8023B48BF11F8B3
:10099000012B28BF20F8023B48BF00F8012B70470D
:1009A0004FF000020429C0F0128010F0030C00F098
:1009B0001B80CCF1040CBCF1020F18BF00F8012B16
:1009C000A8BF20F8022BA1EB0C0100F00DB85FEAE4
:1009D000C17C24BF00F8012B00F8012B48BF00F8B0
:1009E000012B70474FF0000200B51346944696461F
:1009F000203922BFA0E80C50A0E80C50B1F1200132
:100A0000BFF4F7AF090728BFA0E80C5048BF0CC0DF
:100A10005DF804EB890028BF40F8042B08BF70473D
:100A200048BF20F8022B11F0804F18BF00F8012BAF
:100A3000704770477047704710B500F0D7FA0068EC
:100A400010BD10B5044600F0D1FA046010BD2DE9C8
:100A5000F0470D4699469246044600F12408016885
:100A6000880604D5E06921F01001216000E0012032
:100A7000A84201DD471B00E00027A1697A1902EBBB
:100A80000900081AA0612078C00602D42046FFF7AA
:100A9000EFFC002608E0D4E901211AF8060090478F
:100AA000206A401C761C20624E45F4DB2078C0068C
:100AB0000AD52046FFF7DCFC06E0D4E9012130200E
:100AC0009047206A401C2062381EA7F10107F4DC21
:100AD00007E0D4E9012118F805009047206A401C7E
:100AE0002062281EA5F10105F3DC2046FFF7D6FCA5
:100AF0002078000602D50220BDE8F0870120FBE740
:100B000070472DE9FF4F0C461E464FF0FF378BB064
:100B1000D2E90001DDF860800A908A46C1F30A55E7
:100B200005B93D46002108464FF00000BAF1000F1C
:100B300000F4400005DA00EB80004FF4400101EAC8
:100B400050004FEA9059B9F1010F00DDB9460A98FB
:100B500050EA4A000ED044F61050A5F2FF35454346
:100B60002F14B8F1000F1ED07542291E1EDDC9F1E9
:100B700000021CE0B8F1010F4FF0000001D030215D
:100B800003E0F24305E02154401CB042FBDB304659
:100B90000022002121540B99C1F80880C1E90020EE
:100BA0000FB0BDE8F08FBD1B6D1CDEE74A4600DAD2
:100BB000694206A800F066FC06AB93E8070003ABA9
:100BC00083E8070050460A9900F051FD8DE80700C0
:100BD000A0F500501F3800900398002D0ADD42F266
:100BE0001F014A460844002303A90390684600F009
:100BF000BAFF09E0A0F500504A461F38002303A9B8
:100C00000390684600F0C4FF8DE807000004000C64
:100C100003D04FF0FF30410800E01046B8F1000F5C
:100C200003D00022009215461EE0751E05D400F088
:100C3000E1F9303262556D1EF9D5B3460122084301
:100C400002D000227F1C04E02078302801D100224D
:100C50007F1E002A099784D01DE0112D07DA00F0CD
:100C6000C9F9303262556D1C50EA0102F5D10843D2
:100C700002D00098C8B10EE00021681E05E0235C98
:100C8000625C63542254401E491C8142F7DBAB4630
:100C9000A81B401E0990002004F80B000B98099A2D
:100CA000C0F80880C0E9002B7AE711264FF0000851
:100CB00057E72DE9F04F88460446D21D22F0070180
:100CC00091B0D1E90001CDE90A0104F01BFE024612
:100CD0000B98C00F01D02D2007E02068810701D5B7
:100CE0002B2002E0202101EAC000032A099001D054
:100CF000072A05DB03464146204600F0C9F90BE10F
:100D00002078800601D5E06900E00620B8F1650F83
:100D1000814606D0B8F1660F18D0B8F1670F70D1D0
:100D200031E00020B9F1110F009001DB112301E047
:100D300009F101030AAA01A90CA8FFF7E2FEDDE907
:100D40000C70002609F10105834647E001204B465F
:100D500000904FF000470AAA01A90CA8FFF7D1FEA6
:100D6000DDE90DB00C995D46002610B909F10100CE
:100D70000D18B9EB050003D4C0F1FF3609F10105E8
:100D8000A5EB09002BE0B9F1010F01DA4FF00109E1
:100D90000020B9F1110F0090484601DD112300E059
:100DA00003460AAA01A90CA8FFF7ABFEDDE90C7007
:100DB0004D4600268346207800070AD4AB4500DA6A
:100DC0005D4601A8012D04DD411911F8011C3029EF
:100DD00007D04F4502DA17F1040F04DA01208246EA
:100DE0000FE06D1EEEE7002F02DCED1B3E4403E03A
:100DF000781CA84200DD7D1CB81B00F1010A4FF0F1
:100E000000472078000703D4AA4501DB4FF0FF3AE2
:100E10000021B7F1004F0DF143088DF8431024D0A5
:100E200002202B23002F01DA7F422D230A21021EEC
:100E3000A0F1010000DC5FB197FBF1FC97FBF1F240
:100E400001FB1C7C17460CF1300C08F801CDEEE7D5
:100E5000A8F1010003702188090501D5452100E0B2
:100E60006521A0F1010800F8011C09980FA9A1EB68
:100E70000807FF1D00B10120411901EBEA70A169CB
:100E80003844081A401EA0612078C00602D42046CB
:100E9000FFF7EEFA099828B1D4E901219047206ABA
:100EA000401C20622078C00622D52046FFF7E0FAD9
:100EB0001EE0002E04DBB34502DD01A8805D00E0EA
:100EC0003020D4E901219047206A401C2062761C22
:100ED000AAF101005FEA000A0AD100F083F8C068B5
:100EE0000168405CD4E901219047206A401C2062DF
:100EF000281EA5F10105DCDC07E0D4E9012118F882
:100F0000010B9047206A401C2062381EA7F10107A0
:100F1000F3DC2046FFF7C2FA032011B041E60000DF
:100F200001694A1C02610878704700B58FB0CDE9AD
:100F300001310021059105497944CDE9031011469D
:100F40006846FFF725FB0FB000BD0000E5FFFFFF7F
:100F50000A6802F8010B0A6070473A2800D230385C
:100F600020F02002412A01D3A2F13700884201D3A8
:100F70004FF0FF30704700000268114413780160A1
:100F800018467047D1600549794451610449794454
:100F9000116200211161114600F0BAB8EDFFFFFFA8
:100FA000ED000000426842B1016811F8013B23B135
:100FB000521EC0E90012184670470121C160881E08
:100FC000704742685AB1C368016843B983688B426D
:100FD00005D0491E521CC0E90012002070474FF096
:100FE000FF307047004870471843002000487047A2
:100FF000F842002030B5B0F10A024FEA900E71F1CC
:1010000000034EEA817EB0EB0E0061EB91014FEAE6
:10101000101E4EEA017E10EB0E0041EB11114FEA5B
:10102000102E4EEA016E10EB0E0041EB11214FEA3B
:10103000104E4EEA014E10EB0E0041EB11414018EC
:1010400041F100014FEAD00040EA41704FEAD1017E
:1010500010EB80054FEA810444EA907444EB0104EC
:101060006D1944EB0404521BA3414FF0000348BF29
:101070000A3200D530BD401C41F1000130BD10B531
:10108000044600F09BFA0068005D00F0010010BD0E
:101090002DE9F0411F46044603260168072A01F4A2
:1010A000006004DB08B116A505E016A503E008B151
:1010B00015A500E015A521F010002060A069C01E54
:1010C000A0610FB1401EA0612046FFF7D1F94FB1DA
:1010D000D4E9012138469047206A401C2062C01C98
:1010E000206206E0206AFAE7D4E9012115F8010B35
:1010F0009047761EF8D22046FFF7D0F9BDE8F08180
:101100004E414E006E616E00494E4600696E6600AB
:101110002DE9F34F4FF0000A0C4656468DB00120E2
:101120000C9001F10C000B9062690B980121904723
:10113000051E2DD0252D2CD0216A8847C0B16269AB
:101140000B9801219047216A88470028F7D16269EE
:10115000411E0B98904700E0761CA1690D988847C6
:10116000216A88470028F7D1E1690D988847DBE7B5
:10117000A1690D988847A842074601D1761CD3E79C
:10118000E1690D9888477F1C02D1BAF1000F6FD03A
:101190006CE162690B9800273D46394690472A2842
:1011A00004D162690B98012190470125DFF8D082B4
:1011B00062690B9801219047A0F130010A290AD2F7
:1011C0004745E5DC07EB870100EB4107303FDFD403
:1011D00045F01005ECE7E90601D46FF000476C28F4
:1011E0000AD04C2814D0682815D06A280DD074284D
:1011F0001CD07A281AD01DE062690B980121904713
:101200006C2802D045F0040514E045F002050DE01D
:1012100045F020050AE062690B9801219047682893
:1012200002D045F0080505E045F4006562690B98B9
:1012300001219047C4E9015765283DD019DC5828A1
:101240007AD00CDC452837D004DC252826D041286C
:101250009ED131E046282FD0472899D12CE05B2839
:1012600077D0612828D063287CD0642823D15AE025
:10127000F7E06F2848D008DC66281DD067281BD00F
:10128000692821D06E2816D127E0702845D0732810
:1012900068D0752847D078280DD14DE0A1690D9808
:1012A0008847252805463FF469AFE1690D988847CE
:1012B0006D1C3FF46AAFD9E00D9923466A466FF082
:1012C0000100AFF30080C6E045F0400023464FF038
:1012D00000026060A80736D43EE0E8077FF447AF1D
:1012E0002068011D21600068290501D506701BE7F3
:1012F000290701D5068017E7A90703D5F117C0E92B
:10130000006111E706600FE745F0400023464FF00B
:1013100008026060A80716D41EE040F60E0125EA18
:101320000100606016E045F0400023464FF00A02DD
:101330006060A80707D40FE045F040006060A80790
:1013400008D5234610220D996FF00100AFF30080FD
:1013500081E007E0102223460D996FF00100FFF7AE
:10136000D1F978E04FF0000963284F46C8464B4654
:10137000CB4602D05B2807D039E02079C00601D4E3
:101380000120A060012732E06269D4F80CB00B980C
:10139000012190475E2807D14FF001094946626953
:1013A000D4F80CB00B989047216939B900210A464E
:1013B00003AB43F82120491C0829FADBD8B3216983
:1013C00049B308F1010862690B98012190475D2833
:1013D000F4D1B9F1000F09D0002003A951F8202061
:1013E000D24341F82020401C0828F7DB03AB2069DA
:1013F000002820794FEA40701ED05B462246CDF887
:101400000080CDE901970D9900286FF0010020DAE6
:10141000AFF300801FE0C11703AA00EBD1614B11AD
:1014200021F01F0102EB8302411A1368012088405A
:1014300003431360C7E719E00D99224600286FF0B7
:101440000100009702DAAFF3008004E0AFF3008000
:1014500001E0AFF3008000280ADA401C06D10C98A6
:1014600020B14FF0FF300FB0BDE8F08F5046FAE7E3
:10147000E90701D10AF1010A064400200C9053E665
:10148000CCCCCC0C2DE9F047814616468AB03548C5
:1014900078440DC88DE80D0032487844801C03ACB8
:1014A0000DC884E80D0041F69B300844372190FBBD
:1014B000F1F290FBF1F5A5F1800501FB12041B3C54
:1014C00002D56442012000E00020DFF898A08046A9
:1014D0000027FA44AAF1BE0A0EE0E0070AD032461D
:1014E000684607EB470101230AEB810100F050FB3E
:1014F0008DE8070064107F1C002CEED1194F7F444B
:10150000AE3F19E0E80715D007EB04100DF1180AFB
:1015100090E80E008AE80E00C068F04201D19819E8
:1015200008903246012306A903A800F031FB03AB63
:1015300083E807006D10641C002DE3D14FF0010318
:1015400032466946B8F1000F03A802D000F00BFB49
:1015500001E000F01DFBC9E90001C9F808200AB04C
:10156000BDE8F087E06D000000487047F8420020B9
:101570007546FFF7F9FFAE4605006946534620F071
:101580000700854618B020B5FEF7D4FEBDE8204020
:101590004FF000064FF000074FF000084FF0000B2F
:1015A00021F00701AC46ACE8C009ACE8C009ACE8E2
:1015B000C009ACE8C0098D467047000010B5FFF7C0
:1015C00011FD001D10BD00BFC160000010B5044634
:1015D000AFF300802046BDE81040FEF737BE0000A4
:1015E0004FF0013C50F8042B51F8043B9A4221D1B2
:1015F000A2EB0C03934313EACC1317D150F8042B3E
:1016000051F8043B9A4215D1A2EB0C03934313EA21
:10161000CC130BD150F8042B51F8043B9A4209D15A
:10162000A2EB0C03934313EACC13DBD04FF0000082
:10163000704700BFD01A01BAB1FA81F101F0180168
:1016400022FA01F0CB40C1F12001DBB2C0B2C01AD6
:101650002CFA01F3D11A914311EAC311E6D1704774
:1016600001491820ABBEFEE72600020070475FEA82
:10167000400C08BF91F0000F4FEA8C234FEAC122C3
:1016800043EA51514FEA1C5018BF00F5F0404FEAB1
:10169000300018BF41F000415FEA6C5C00F0298027
:1016A000BCF1FF3F08BF40F080407047130C06BFFD
:1016B00012044FF0100C4FF0000C130E04BF120276
:1016C0000CF1080C130F04BF12010CF1040C930F62
:1016D00004BF92000CF1020CD30F04BF52000CF1B6
:1016E000010C11464FF00002A0F11F00A0EB0C000E
:1016F000704711F0004F08BF704731F000413FF4D0
:10170000D5AF0B0C06BF09044FF0100C4FF0000CC6
:101710000B0E04BF09020CF1080C0B0F04BF0901EA
:101720000CF1040C8B0F04BF89000CF1020CCB0FE1
:1017300004BF49000CF1010CCCF12003A0EB0C001C
:1017400022FA03F302FA0CF241EA030100F101006C
:10175000704720F07F4C80EA030023F07F47ACEB1A
:10176000070303F57C5300F0004003F1FF032DE96C
:1017700080494FEA154B09B44FEA144325EA0B4E52
:1017800024EA03480FF2042606EB132749083E78A3
:101790005FEA320203FB0667C7F5000707FB06F6A0
:1017A0004FEA54374FEAD64606F1020607FB066CAD
:1017B000CCF1005C4FEA1C472CEA074C07FB06F40F
:1017C0000CFB06F504EB15464FEA961634BF0020D5
:1017D0004FF000404FEAD13706FB07FC4FEA1C4CA4
:1017E0000CFB0BF7D21B03FB0CF761EB07010CFBA7
:1017F0000EF7B0EB074072EB17420CFB08F734BF53
:10180000A2EB0742B2EB074261EB17414FEA0C44EF
:101810004FEA910706FB07FC4FEA1C4C0CFB0BF749
:10182000B0EBC74072EB573203FB0CF734BFA2EBAF
:10183000C742B2EBC74261EB57310CFB0EF7B0EB7E
:10184000C70072EB57720CFB08F734BFA2EBC7025C
:10185000B2EBC70261EB5771039F4FEA816141EA26
:10186000921104EBCC044FEAD1374FEA826206FBB7
:1018700007FC42EA90124FEA80604FEA1C4C0CFBD6
:101880000BF7D21B03FB0CF761EB07010CFB0EF708
:10189000B0EB074072EB17420CFB08F734BFA2EB2A
:1018A0000742B2EB074261EB17414FEA8C554FEA12
:1018B000910704EB9C2406FB07FC4FEA1C4C0CFB35
:1018C0000BF7B0EBC74072EB573203FB0CF734BF9A
:1018D000A2EBC742B2EBC74261EB57310CFB0EF7EC
:1018E000B0EBC70072EB57720CFB08F734BFA2EBEA
:1018F000C702B2EBC70261EB577115EB4C254FEAFB
:10190000816141EA92114FEA82624FEAD13742EA9D
:10191000901206FB07FC44F100044FEA80604FEA96
:101920001C4C0CFB0BF7D21B03FB0CF761EB070104
:101930000CFB0EF7B0EB074072EB17420CFB08F7FD
:1019400034BFA2EB0742B2EB074261EB174115EB44
:101950001C154FEA813141EA92414FEA823242EA54
:1019600090424FEA80304FEA0C7644F1000448EA96
:1019700003434EEA0B484FF0000EB2EB080C71EB3C
:10198000030724BF624639464EEB0E0E4FF0000BA4
:101990000018524149414BEB0B0BB2EB080C71EBB9
:1019A00003077BF1000B24BF624639464EEB0E0E57
:1019B0004FF0000B0018524149414BEB0B0BB2EBBF
:1019C000080C71EB03077BF1000B24BF624639461C
:1019D0004EEB0E0E51EA020718BF46F0010616EB59
:1019E0000E7655F1000254F1000103D5BDE88901DE
:1019F000BDE80088BDE88901BDE80048B61952413C
:101A000041EB0101A3F10103704780807F7E7D7C63
:101A10007B7A7978777676757473727171706F6E80
:101A20006E6D6C6C6B6A6A6968686766666564642B
:101A3000636362616160605F5F5E5E5D5D5C5C5BB5
:101A40005B5A5A5959585857575656555555545424
:101A5000535352525251515050504F4F4F4E4E4D82
:101A60004D4D4C4C4C4B4B4B4A4A4A4949494848CE
:101A7000484747474746464645454544444444430E
:101A800043434342424242414141002B9C4630D4B1
:101A900077002BD01CB54FEA370703B44FF0100086
:101AA0004FF01001BAF1000F06D0BCF1000FDCBFFF
:101AB00040F0080040F008014FF000000FBCBDE806
:101AC00010400BF1010BBBF1010F08BF5FEA1707D4
:101AD00022BF12F1010211F101014FF0004143F167
:101AE000000300F0004043EA00007047F9D35708B4
:101AF000D0E746EA064613F1400F4FEA16461FDDCF
:101B000013F1200FDFBF16430A46002120335B424A
:101B1000BED0C3F1200746EA064602FA07F74FEAAD
:101B2000164646EA0706C3F1200722FA03F201FA35
:101B300007F721FA03F14FF0000342EA0702A7E793
:101B400046EA020646EA06464FEA164646EA010615
:101B5000BCBF46EA0646360C4FF000034FF00002C9
:101B60004FF0000194E72DE9804C9A46934670B4FB
:101B700091E8380007C831EA400C48BF34EA430C0A
:101B800003D5FFF7E6FDFFF780FFF0BCBDE8008C52
:101B90002DE9804C9A46934670B491E8380007C806
:101BA00010F0804F08BF13F0804F03D100F005F80C
:101BB000FFF76BFFF0BCBDE8008C20F07F4780EAA8
:101BC000030023F07F4C07EB0C03A3F57C5300F0DC
:101BD0000040A3F1FE0392F0000F00F0B38095F0F7
:101BE000000F00F077802DE901494FEA11404FEADC
:101BF000144621EA004800FB06FC24EA064708FBDD
:101C000006F607FB08F800FB07F718EB06484CEB55
:101C1000164C4FEA124B18EB07484FEA15464CEBAF
:101C2000174022EA0B4E0BFB06FC25EA06470EFB8B
:101C300006F607FB0EFE0BFB07F71EEB064E4CEB02
:101C4000164C4FF000061EEB074E4CEB174B18EBF3
:101C50000B0840F1000018EB0E0B58EB000840F1A8
:101C600000008F1A4FF000013CBFC943661B14BF30
:101C7000B5EB040C00213CBFC943F61B4FEA1744E7
:101C80004EEA8E0E27EA04454FEA1C4704FB076222
:101C90002CEA074C05FB07F70CFB05F604FB0CFCD4
:101CA00016EB074642EB174216EB0C4642EB1C4282
:101CB0001BEB060658EB0202414146EA9E0601D59F
:101CC000BDE80189B619524141EB0101A3F10103BD
:101CD000BDE801894FEA14454FEA114724EA054659
:101CE00021EA074C05FB07F406FB07F70CFB06F19E
:101CF00005FB0CFC11EB074144EB17444FEA12477C
:101D000011EB0C4144EB1C4422EA074C05FB07F2A3
:101D100006FB07F70CFB06F605FB0CFC16EB07466B
:101D200042EB174216EB0C4642EB1C456A1854F185
:101D3000000148BF7047B619524141EB0101A3F1C0
:101D40000103704795F0000F37D04FEA11424FEA78
:101D5000144721EA024624EA074C02FB07F106FB7E
:101D600007F70CFB06F402FB0CFC14EB074441EBF9
:101D700017414FEA154714EB0C4441EB1C4125EA8F
:101D8000074C02FB07F506FB07F70CFB06F602FB08
:101D90000CFC16EB074645EB174516EB0C4645EBDE
:101DA0001C42121951F1000148BF7047B619524147
:101DB00041EB0101A3F1010370474FEA14454FEADB
:101DC000114724EA054621EA074C05FB07F106FB0B
:101DD00007F70CFB06F24FF0000605FB0CFC12EBBC
:101DE000074241EB174112EB0C4251EB1C4148BF3B
:101DF0007047921841EB0101A3F10103704710B540
:101E00000146806B026C12F0500F05D0026CD206B6
:101E100026D500F085FB10BD016C41F40071016412
:101E200001688A6812F0405F17D1027EAAB9CA6AB7
:101E300012F4700F02D08A6852050ED44A6822F05C
:101E400020024A60016C21F480710164016CC904B4
:101E500003D4016C41F00101016400F05FFB10BD8F
:101E6000806BC26CBDE810400846104710B5806B0F
:101E700040210164416C41F00401416400F050FBD9
:101E800010BD10B5806B00F04AFB10BD464910B57F
:101E90004A6822F440324A604A6843681A434A60FA
:101EA00001684A6822F480724A6001684A680369DE
:101EB00042EA03224A6001684A6822F040724A609E
:101EC00001684A6883681A434A6001688A6822F494
:101ED00000628A6001688A68C3681A438A60816AFE
:101EE0006FF07062D14201688A6822F070628A6085
:101EF00001688A680CD0836A1A438A6001688A681C
:101F000022F040528A6001688A68C36A1A4301E07D
:101F100022F040528A6001688A6822F002028A60D8
:101F200001688A68037E42EA43028A6090F82010C2
:101F3000002901684A680FD042F400624A600168D3
:101F40004A6822F460424A6001684A68174C436A52
:101F500004EB43331A4301E022F400624A60016853
:101F6000CA6A22F47002CA620168CA6A838B104C82
:101F700004EB03531A43CA6201688A6822F40072B0
:101F80008A6001688A6890F8303042EA43228A60A9
:101F900001688A6822F480628A6001688A68406900
:101FA00042EA8020886010BD0023014000E0FFFF6E
:101FB0000000F0FF2DE9FE4F0024642615468946F7
:101FC00082464FF0A008012712E000BF0AEB040090
:101FD000020A48EA4201C2B209EB0400CDE9000757
:101FE000C9B201230296044800F05EFF641CA4B24B
:101FF000AC42EBD3BDE8FE8FB00300202DE9FE4FCD
:10200000002464261546894682464FF0A008012721
:1020100015E000BF0AEB0400020A48EA4201C2B21E
:1020200009EB0400CDE90007C9B201230296064876
:1020300001F036F8052004F095FC641CA4B2AC4213
:10204000E8D3BDE8FE8F0000B003002010B586B0D5
:1020500014216846FEF7C6FC1048016841F00201F1
:10206000016000680E4C00F002000590C020009056
:102070001120019001200290022003906946204621
:1020800000F03EFD01224021204600F03EFE0122EC
:102090008021204600F039FE06B010BD30380240E5
:1020A0000004024070B5002402F0BCFF422002F0A0
:1020B000FDFF02F09BFF144E01228021304600F00C
:1020C00024FE002500224021304600F01EFE640858
:1020D0000A2002F031FA01224021304600F015FEBC
:1020E0008021304600F004FE08B144F08004142042
:1020F00002F022FA6D1CEDB2082DE3D302F076FF58
:1021000002F0B0FF204670BD000402402DE9F0410E
:1021100010EE100A364A3749904202D99FED360A2E
:1021200005E010EE100A884201DD9FED340AF2EE60
:10213000040A60EE200AFDEEE00A10EE901A002973
:1021400000DA4942642091FBF0F0C4B20A2091FB0E
:10215000F0F292FBF0F300FB1322D3B291FBF0F20A
:1021600000FB1210C2B2264806782648045DFC2CFB
:1021700002D1642900DA0024B5EEC00AC15CF1EE98
:1021800010FA855C41F0010701D245F0010502F02B
:1021900049FF402002F08AFF02F028FF02F062FFB0
:1021A00002F040FFC02002F081FF02F01FFF304626
:1021B00002F07CFF02F01AFF204602F077FF02F0E7
:1021C00015FF384602F072FF02F010FF284602F0B9
:1021D0006DFF02F00BFF02F045FF02F023FF8C20A1
:1021E00002F064FF02F002FFBDE8F04102F03ABFE6
:1021F000CDCCC7C2CDCCC742CDCCC7C2CDCCC74257
:10220000A8000020648100084021014800F075BD4D
:10221000001002404FF40051014800F06EBD000074
:102220000008024010B50D4C01461022207800EB4A
:10223000800002EB80001422FFF7E0FE2078401CB3
:10224000C0B22070642801D3002020700122BDE8B4
:10225000104002490020FFF7D1BE0000A900002075
:102260000148007870470000A900002010B5012245
:1022700008490020FFF79EFE06480178642908D32C
:102280000021017001220146BDE810400020FFF747
:10229000B5BE10BDA9000020642807D200EB800065
:1022A000102202EB80001422FFF784BE704700006A
:1022B00000224FF48051014800F027BD0008024081
:1022C00070B501220B4E044615032946304600F036
:1022D0001CFD2046FEF7CEFA82B24FF47A732146F7
:1022E000054802F0CFF829463046BDE8704000228C
:1022F00000F00BBD0008024024040020FEE70000AF
:10230000014800F08BBA000068040020014800F08A
:1023100085BA0000C8040020014800F07FBA000020
:102320005003002001681823CAB2103AB2FBF3F23E
:10233000054B6FF30901032A9B5CC36500D9091D96
:1023400081650846704700004481000810B50146C9
:1023500000208B698A6A4FF0C07453B1B3F5005FF7
:1023600015D072B1012A0CD0022A0AD0032A09D151
:1023700004E01AB1012A06D0022A03D1C96AC901B0
:1023800000D5012010BDC96AA142FAD010BD002AB3
:10239000F7D0012AF2D0022AF3D0032AF3D010BDDD
:1023A00030B50468256825F48025256004686360DD
:1023B0008368402B036803D099600068C26030BD19
:1023C0009A600068C16030BD704772B6FEE70000D9
:1023D00078B50024009490F83C20012A19D00122FD
:1023E00080F83C200A6807230568092A13D9EE689B
:1023F0000A3A02EB420293409E43EE600B788A68F1
:102400000A3B03EB43039A400368DD682A43DA6022
:1024100010E0022078BD2E6902EB420293409E43F9
:102420002E610B788A6803EB43039A4003681D69A9
:102430002A431A614A681F23072A13D205686E6B64
:10244000521E02EB820293409E436E630B790A8810
:102450005B1E92B203EB83039A4003685D6B2A43D1
:102460005A6327E005680D2A12D22E6BD21F02EBA9
:10247000820293409E432E630B790A88DB1F92B23F
:1024800003EB83039A4003681D6B2A431A6311E030
:10249000EE6A0D3A02EB820293409E43EE620B79A4
:1024A0000A880D3B92B203EB83039A400368DD6A0E
:1024B0002A43DA62164B0568144A9D4206D10D681C
:1024C000122D03D1556845F48005556005689D427D
:1024D00018D10B68102B01D0112B13D1536843F482
:1024E00000035360096810290CD10A490A4A096897
:1024F000B1FBF2F101EB8101490000E0491E0091BE
:102500000029FBD180F83C40002078BD0023014029
:10251000002001402000002040420F00704770471B
:10252000704770B504004FF0000503D0206C002602
:1025300010B107E0012070BD204600F01DF8666470
:1025400084F83C60206CC00610D4206C20F48850C5
:1025500040F0020020642046FFF798FC6664206C7F
:1025600020F0020040F00100206400E0012584F822
:102570003C60284670BD000070B586B00646142148
:102580006846FEF72FFA1D493068884234D11C484E
:102590000025016841F480710160006800F48070DA
:1025A000059017481438016841F004010160006883
:1025B000694600F0040005900C2000900320CDE94E
:1025C0000105104800F09CFA104C0F48C4E90005C2
:1025D0000015A560C4E90350400060618000A0615F
:1025E0004011C4E907052046656200F0E7F908B12B
:1025F000FFF7EBFEB463A66306B070BD0020014098
:102600004438024000080240106402405003002099
:10261000F8B5044600200E46009094F83C100129BD
:1026200007D0012184F83C1021688B68DB0702D0B9
:1026300011E00220F8BD8B6843F001038B60404934
:10264000404B0968B1FBF3F101EB410100E0491E89
:1026500000910029FBD121688B68DB0503D58B68CD
:1026600023F480738B6021688B68DB075DD0236C5B
:1026700040F20165AB4343F4807323644968490524
:1026800005D5216C21F4005141F480512164216C65
:10269000C90404D5616C21F00601616400E0606446
:1026A00084F83C00A16B2948274DC863A16B2848DA
:1026B0000864A16B2748C86421686FF02200086095
:1026C0002068416841F0806141602068816841F480
:1026D000807181602168134632464C31A06B00F056
:1026E000D7F968681C49C006206806D0884224D102
:1026F000816811F0405F13D01FE08842F8D0174A7C
:10270000904203D1D1F80423D206F1D0144A90426A
:1027100013D1D1F8041301F01F011029E8D30CE004
:10272000816841F08041816007E0206C40F010003A
:102730002064606C40F0010060640020F8BD00007F
:102740002000002040420F0000230140FF1D000830
:10275000831E00086D1E000800200140002101407A
:10276000002201402DE9F0410446876D00F0D2FAC5
:10277000064694F835000025022806D080206065C2
:1027800084F834500120BDE8F0812068016821F010
:10279000160101602068416921F080014161206CCF
:1027A00008B9A06C20B12068016821F0080101601F
:1027B0002068016821F0010101600CE000F0AAFA34
:1027C000801B052807D920206065032084F8350088
:1027D00084F83450D7E720680068C007EED194F839
:1027E0005C103F208840B860012084F8350084F8F0
:1027F00034500020C7E790F83510022903D080211B
:10280000416501207047052180F835100068016896
:1028100021F0010101600020704700002DE9F8431C
:1028200004464FF00009CDF8009063484FF416516C
:10283000A56D0068B0FBF1F72E6894F85C100820D5
:1028400000FA01F131420FD021680A6852070BD516
:102850000A6822F004020A6094F85C108840A860BC
:10286000606D40F00100606594F85C104FF0010865
:1028700008FA01F0304208D021684969090604D5F8
:10288000A860606D40F00200606594F85C10042060
:102890008840304208D021680968890704D5A860BB
:1028A000606D40F00400606594F85C101020884072
:1028B000304218D021680968090714D5A86020683B
:1028C0000168490304D50068000308D5A16C07E03E
:1028D0000168C90503D4016821F008010160216C79
:1028E00009B12046884794F85C1020208840304287
:1028F00031D021680968C9062DD5A86094F8350043
:1029000005282068016806D0490347D50068000300
:102910001DD4616C1CE021F0160101602068416942
:1029200021F080014161206C08B9A06C20B12068C1
:10293000016821F00801016094F85C103F20884094
:10294000A86084F8358084F83490216D1FE0E16B35
:1029500009B120468847606D00282BD0606DC00704
:1029600014D0052084F835002068016821F00101A9
:1029700001600098401C0090B84203D820680068AD
:10298000C007F6D184F8358084F83490E16C0029D2
:1029900010D001B02046BDE8F04308470168C905E2
:1029A000D5D4016821F01001016084F8358084F8E5
:1029B0003490CCE7BDE8F883200000202DE9F041F9
:1029C000044600F0A7F906465CB1022084F8350001
:1029D000002584F834502068016821F0010101606D
:1029E0000DE00120BDE8F08100F094F9801B05287E
:1029F00005D920206065032084F83500F2E72068BF
:102A00000068C007F0D12268116820480140D4E96D
:102A100001031843D4E90336334318436369184369
:102A2000A3691843E3691843236A18430843616A9A
:102A3000042903D1D4E90B1319430843106020681B
:102A40004069666A20F0070130460E4301270428DA
:102A50000CD1A06A0643E06A40B12046FFF776FC3D
:102A600020B14020606584F83570BAE7206846617F
:102A70002046FFF757FC94F85C203F21914081608D
:102A8000656584F835700020ACE700003F8010F0E9
:102A90002DE9F0410446866D90F8340000250128A8
:102AA0000DD0012084F8340094F835700020012FF7
:102AB00007D084F8340002252846BDE8F0810220C2
:102AC000FBE7022784F8357060652046FFF768FC55
:102AD00094F85C103F208840B0602068016841F0A5
:102AE00016010160206C20B12068016841F00801E6
:102AF00001602068016841F001010160DCE700002D
:102B00002DE9F84FDFF8BCA1002201250AF1040BE2
:102B100003264FF00F090BF1040E00BF0B6805FAF6
:102B200002F42340A34270D10F7907F00307012F6D
:102B300001D0022F16D187684FEA420806FA08FC36
:102B400027EA0C07D1F80CC00CFA08FC4CEA070C79
:102B5000C0F808C04768A7430C79C4F30014944038
:102B60003C4344600C79E443A4070AD0C4684FEAAC
:102B7000420C06FA0CF7BC438F6807FA0CF72743A0
:102B8000C7600C7904F00304022C12D1D40800EBC6
:102B9000840CDCF820405707FF0E09FA07F824EAF6
:102BA0000804D1F8108008FA07F848EA0408CCF8BD
:102BB000208004684FEA420C06FA0CF7BC430F79F8
:102BC00007F0030707FA0CF7274307604C6814F473
:102BD000403F70D03C4C276847F48047276024680A
:102BE00022F0030704F480440094384C07EB040CF3
:102BF000DCF8084897074FEA177809FA08F7BC434A
:102C0000334FB84202D1002724E054E0314FB8429C
:102C100001D101271EE0304FB84201D1022719E04F
:102C20002E4FB84201D1032714E02D4FB84201D1F5
:102C300004270FE02B4FB84201D105270AE02A4FA5
:102C4000B84201D1062705E0284FB84201D1072735
:102C500000E0082707FA08F72743CCF80878DAF8E5
:102C600000405746D1F804C09C435FEACC3C00D5F5
:102C70001C433C60DBF800405F46D1F804C09C4335
:102C80005FEA8C3C00D51C433C60DEF80040774690
:102C9000D1F804C09C435FEACC2C00D51C433C60B7
:102CA000084F0C373C68D1F804C09C435FEA8C2C79
:102CB00000D51C433C60521C102AFFF42FAFBDE826
:102CC000F88F0000003C01404438024000300140D1
:102CD000000002400004024000080240000C0240D4
:102CE000001002400014024000180240001C024084
:102CF0000069084000D001207047426921EA0203C0
:102D00000A4043EA0241816170470AB1816170471C
:102D10000904FBE7014880687047000014000020A8
:102D200070B5040025D094F83D00002520B984F842
:102D30003C50204600F04CFA242084F83D002068E6
:102D4000016821F0010101602068016841F400413F
:102D500001602068016821F40041016000F07EFC00
:102D60004D4A6168914201D84C4900E04C49884283
:102D700001D2012070BD4B492368B0FBF1F15E68C0
:102D800026F03F060E435E606368934206D94FF417
:102D9000967359434FF47A73B1FBF3F12368491CDE
:102DA0001E6A26F03F06314319626168914210D8CD
:102DB0004900401EB0FBF1F2521CC2F30B02042A80
:102DC00001D2042022E0B0FBF1F0401CC0F30B0064
:102DD0001CE0A268F2B301EBC10303EB0116431E32
:102DE000B3FBF6F35B1C43F480431B0549D092B35D
:102DF00001EBC10202EB0111401EB0FBF1F0401CDF
:102E0000C0F30B0040F4804040F400402168CA69E0
:102E10004CF6FF739A431043C861D4E9071001438D
:102E20002068026822F0C00211430160D4E9030166
:102E300001432068826848F2FF339A43114381605E
:102E4000D4E9050108432168CA6822F0FF02104353
:102E5000C86001E00EE016E02068016841F0010161
:102E600001602564202084F83D00256384F83E50ED
:102E7000002070BD01EB4106431EB3FBF6F35B1C63
:102E8000B3E70120C2E701EB4101401EB0FBF1F0C6
:102E9000401CC0F30B00B7E7A086010080841E0031
:102EA00000093D0040420F002DE9FF4F83B09A46D4
:102EB000DDE9119793460446DDF84080FFF72AFFCD
:102EC000054694F83D00202870D11923012271494C
:102ED0002046009501F050FC0028F5D194F83C0004
:102EE000012863D0012084F83C0020680168C907EC
:102EF00003D1016841F0010101602068016821F4FB
:102F000000610160222084F83D00402084F83E00EA
:102F100000262664C4F82480A4F82A90608D2085B9
:102F20005D48E062CDE9007553465A462046049953
:102F300001F02AFB00287CD1208DD0B1012821D0BE
:102F40000228206824D0416980690090208D0328E0
:102F500069D801282BD0514902283B464FF0000286
:102F6000009559D08846204601F006FC002860D123
:102F70003CE02068416981690091016841F4007179
:102F8000016077E02068016821F480610160F0E76A
:102F9000016821F4806101602068016841F40061EA
:102FA0000160206841698069009063E06FE02A4613
:102FB0003946204601F05FFC98BB20680069616AD1
:102FC00008704EE02068016841F4007101602068DB
:102FD0000069616A0870606A401C6062218D491E48
:102FE0002185618D491E6185216838E0206801686E
:102FF00021F48061016020680069616A0870606A7C
:10300000401C6062208D401E2085608D401E6085C2
:103010003B46002241460095204601F0ADFB00B939
:10302000D0E706E0FFE72A463946204601F023FCB8
:1030300018B1012007B0BDE8F08F20680069616A0F
:103040000870606A401C6062218D491E2185618D77
:10305000491E618521684A69D24352070AD4096929
:103060000170606A401C6062208D401E2085608D6A
:10307000401E6085208D00287FF468AF202084F8F2
:103080003D0084F83E6084F83C600020D2E70220D6
:10309000D0E70000020010000000FFFF0400010064
:1030A0002DE9FF4F83B09A46DDE911979346044618
:1030B000DDF84080FFF72EFE054694F83D002028FD
:1030C0007FD11923012240492046009501F054FB8D
:1030D000002876D194F83C00012872D0012084F8B1
:1030E0003C0020680168C90703D1016841F0010173
:1030F00001602068016821F400610160212084F8EA
:103100003D00402084F83E0000262664C4F8248058
:10311000A4F82A90608D20852C48E062CDE90075E6
:1031200053465A462046049901F0ACFA70B930E093
:103130002A463946204601F0D1FB58B1206C0428BC
:1031400004D12068016841F400710160012007B0DA
:10315000BDE8F08F606A216800780861606A401CF1
:103160006062218D491E89B22185628D521E628561
:1031700022685369DB435B070BD469B100781061A7
:10318000606A401C6062208D401E2085608D401E5C
:103190006085208D0028CBD12A463946204601F093
:1031A000C5FA0028CAD154F83D0B016841F40071FA
:1031B0000160202004F81E09E67766770020C6E744
:1031C000FFE70220C3E70000020010000000FFFF3D
:1031D00010B586B0044614216846FDF703FC144977
:1031E0002068884221D113480021026842F002027F
:1031F0000260006800F0020005904FF440700090FB
:103200001220CDE9010103200390042004906946B7
:103210000948FFF775FC07481030016841F40011B8
:103220000160006800F40010059006B010BD0000B9
:1032300000540040303802400004024002488168D7
:103240000278114481607047140000200B4810B5CB
:10325000016841F400710160016841F4806101601E
:10326000016841F480710160032000F08DF80F20A7
:1032700000F006F800F03EF8002010BD003C0240CF
:1032800010B5014688B00022362000F05DF83620E7
:1032900000F04CF813480024016841F0100101606F
:1032A000006805A900F010000690684600F0B6F925
:1032B00000F0D4F90C494000B0FBF1F10C480B4A86
:1032C000491E026040F2E732C0E90324C0E901145C
:1032D00000F08BFD10B1012008B010BD044800F0D3
:1032E000B3FDF9E74038024040420F0000100040B3
:1032F000280500200C4882B0016841F4804101603B
:10330000006800F4804000900748001F016841F009
:10331000805101600068002200F0805000900F2171
:10332000901E02B000F010B844380240002809DBBB
:1033300000F01F02012191404009800000F1E020CF
:10334000C0F8001170470000F0B40E4B1B680C462B
:10335000C3F30223C3F10705042D00D90425191D69
:10336000072901D2002300E0DB1E012606FA05F141
:10337000491E214099409E40761E16403143F0BCC4
:1033800002F0D8BA0CED00E0064900F00702086828
:103390004FF6FF03184040EA0220034A104308603A
:1033A000704700000CED00E00000FA052DE9F8433D
:1033B000054600684FF00109C1074FF0000601D132
:1033C000400727D5DFF80C81C8F86860FFF7A2FC3A
:1033D0000746414C05E000BFFFF79CFCC01B0228DC
:1033E00057D820680001F7D468688101287A41EA3B
:1033F0000070394984310860C8F86890FFF78AFC8A
:10340000074604E0FFF786FCC01B022841D820686D
:103410000001F7D52878800752D52F484030016841
:1034200041F08051016000682C4C00F08050009009
:10343000206840F480702060FFF76CFC074604E0D1
:10344000FFF768FCC01B022823D82068C005F7D509
:10345000214C7034206810F4407020D0A98901F408
:10346000407181421BD020681D4920F44070C1F892
:1034700000900E6020602068C00710D0FFF74AFC63
:10348000064641F2883707E0FFF744FC801BB8424C
:1034900002D90320BDE8F88320688007F4D5E968E5
:1034A0000D48C1F301220830032A0BD0016821F432
:1034B000F81101602068A989C1F30B01084320605D
:1034C0000020E7E70268074B22F4F81219400A438C
:1034D0000260EFE700004742003802400070004001
:1034E000400E4742FFFCFF0F2DE9F0470E46050056
:1034F00065D0DFF81481D8F80000F7B200F00700BB
:10350000B04207D288F80070D8F8000000F0070039
:10351000B04254D128683D4C810712D5400703D5ED
:10352000206840F4E05020602878000703D5206828
:1035300040F4604020602068A96820F0F000084353
:1035400020602878C0072DD03049686808390128E4
:1035500012D0022813D0032811D009688907002946
:103560002DDA216821F0030101432160FFF7D2FB2E
:10357000814641F2883A0EE009688903EFE709685D
:103580008901ECE7FFF7C6FBA0EB0901514502D921
:103590000320BDE8F0872068696800F00C00B0EBFC
:1035A000810FEFD1D8F80010404601F00701B14279
:1035B00007D90770006800F00700B04201D0012071
:1035C000E7E72878400705D52068E96820F4E0504F
:1035D000084320602878000706D52068296920F470
:1035E000604040EAC100206000F058F82168084AB5
:1035F000C1F30311515CC8400649086006480068E1
:10360000FFF73EFE0020C4E7003C024008380240BD
:103610004C81000820000020180000200F220260CA
:103620000C4A136803F003034360136803F0F003CC
:103630008360136803F4E053C36012684FF4E053EF
:1036400003EAD20202610448006800F00700086043
:103650007047000008380240003C02400448054919
:1036600000680968044AC1F38221515CC840704770
:1036700020000020083802405C8100080448054909
:1036800000680968044AC1F34231515CC840704780
:1036900020000020083802405C810008154810B561
:1036A000006810F00C02144813D04110042A0FD007
:1036B000082A0ED10F4C241F2268236802F03F0213
:1036C0005B0207D52068C0F38810A0FB010106E06B
:1036D000084610BD2168C1F38811A1FB0001002339
:1036E000FCF73AFE2168C1F30141491C4900B0FBD7
:1036F000F1F010BD083802400024F4002DE9F84F25
:1037000004006ED02078DFF84C93C007A9F10405BF
:103710004AD009F104000168C1F38101012908D0F0
:103720000068C0F3810002280AD1D9F800004002E5
:1037300006D52868800337D560680028E1D033E0DB
:103740006068B0F5803F10D0B0F5A02F286810D089
:1037500020F480302860286820F480202860606889
:10376000A8B1FFF7D7FA06460DE0286840F480308C
:10377000F4E740F480202860F7E700BFFFF7CAFABB
:10378000801B642873D828688003F7D50CE0FFF706
:10379000C1FA064605E000BFFFF7BCFA801B6428AB
:1037A000F0D828688003F7D42078DFF8AC8280074F
:1037B0004FF0000A3ED5A748001D016811F00C0F1C
:1037C00008D00068C0F3810002280BD1D9F80000AE
:1037D000400207D42868800716D5E068012800D188
:1037E00012E033E1E068B8B10120C8F80000FFF74B
:1037F00091FA064605E000BFFFF78CFA801B02280D
:10380000C0D828688007F7D52868216920F0F8001B
:1038100040EAC10028600DE0C8F800A0FFF77AFA7E
:10382000064604E0FFF776FA801B02281FD82868B6
:103830008007F7D42078000722D5864F8748616932
:10384000703771B101210160FFF764FA064604E0A8
:10385000FFF760FA801B022809D838688007F7D57F
:103860000EE0C0F800A0FFF755FA064605E082E03A
:10387000FFF750FA801B02287DD838688007F7D4FC
:103880002078400768D5DFF8CCB100270BF13C0B5E
:10389000DBF80000C0000BD4DBF8001041F08051D1
:1038A000CBF80010DBF80000012700F080500090FA
:1038B0006B4E3068C00510D4306840F480703060C2
:1038C000FFF728FA009005E0FFF724FA0099401A64
:1038D000022850D83068C005F6D55E4EA0686C3618
:1038E00001280FD00528306810D020F0010030608A
:1038F000306820F004003060A068B8B1FFF70AFA21
:1039000000900FE0306840F00100F4E740F0040060
:103910003060F7E7FFF7FEF90099411A41F288306D
:10392000814266D830688007F4D50EE0FFF7F2F9DF
:10393000009007E0FFF7EEF90099411A41F2883054
:10394000814256D830688007F4D42FB1DBF80010DC
:1039500021F08051CBF80010A069C8B33D49091D82
:103960000968C1F3810102294AD00228504607D0D4
:10397000C8F8600000E03CE0FFF7CCF904463BE00B
:103980004746C8F86000FFF7C5F9064605E000BFE6
:10399000FFF7C0F9801B02282BD828688001F7D4D4
:1039A000D4E907010843A16A2E4A490802EB014104
:1039B000626A41EA8211084394F82C1040EA0161DE
:1039C000C9F8001001203866FFF7A4F9044606E0A4
:1039D0003EE000BFFFF79EF9001B022809D82868C7
:1039E0008001F7D534E000BFFFF794F9001B0228EF
:1039F00002D90320BDE8F88F28688001F4D427E0BD
:103A00000128F7D0D9F80000E26900F48001914262
:103A10001CD1226A00F03F01914217D147F6C071D4
:103A2000626A0140B1EB821F10D1A26A4FF0FF33EE
:103A300000F4403103EB5202B1EB024F06D194F88F
:103A40002C1000F07060B0EB016F01D00120D1E7C5
:103A50000020CFE70438024000004742800E474272
:103A6000007000400000FFFF0068503050F8210057
:103A700070470068503040F82120704710B500684A
:103A80000B4641680D480140080CD870C1F304246E
:103A90005C7001F03F049C70C1F34231197052B95F
:103AA00001F0D6F8D870587801F0D2F858709878AC
:103AB00001F0CEF89870002010BD00003FFFFF001D
:103AC00010B50B460168896A596001680969C1F33C
:103AD0000E019960006801680E480140C1F305407D
:103AE0001870C1F306245C7001F07F049C704024C0
:103AF00004EA1141D97052B901F0AAF81870587847
:103B000001F0A6F85870987801F0A2F8987000209B
:103B100010BD00007F7F7F0070B5040002D0607F81
:103B200010B106E0012070BD00202077204600F093
:103B300049F8022060772168CA2048622168532032
:103B40004862204601F098F8FF25042618BB20683B
:103B500081681B4A1140816021688868626810434F
:103B6000D4E904231A43104388602168E06808619F
:103B700020680169228941EA024101612068C16827
:103B800021F08001C16020688068800607D420464B
:103B900000F00EF918B1206845626677C2E7206828
:103BA000016C21F4802101642068016CA269114339
:103BB00001642068456201206077002070BD00002C
:103BC000BFFF8FFF1FB5002100910191029103916A
:103BD0000068084988420CD102200090C00103907F
:103BE0006846FFF7E3FB08B1FEF7EFFB024901204F
:103BF00008601FBD002800403C0E47422DE9F047F9
:103C00000446007F0B4601281FD04FF0010984F8BD
:103C10001C9002206077DAB19878D97840EA0145A3
:103C200058781978000240EA413005432168CA20DB
:103C30004862216853204862204601F01DF80026A2
:103C4000FF274FF0040860BB1AE00220BDE8F087B0
:103C50005878C10603D500F0EF000A305870D878C4
:103C600000F0FFFF0204587800F0FBFF42EA002258
:103C7000987800F0F6FF0243187842EA4035D5E71D
:103C80000F480540206845602068C16821F0800128
:103C9000C1602068806880060AD4204600F088F859
:103CA00030B12068476284F81D8026770120CDE777
:103CB0002068476284F81D9026770020C6E7000040
:103CC0003FFFFF002DE9F0470446007F0D46012825
:103CD00027D04FF0010A84F81CA0022060772068EA
:103CE000002680684FEA4060F2B1002800DBEE70E9
:103CF000A878297840EA01476878E978000240EA24
:103D0000014007432168CA20486221685320486265
:103D1000204600F0B1FF4FF0FF084FF00409A0BBB0
:103D200016E00220BDE8F087002800DBEE7028785E
:103D300000F097FF0204687800F093FF42EA002247
:103D4000A87800F08EFF0243E87842EA0047D9E7FE
:103D500016480740206807602068816821F48021A8
:103D60008160D5E90301084321688A6810438860AF
:103D70002068C16821F08001C160206880688006E9
:103D80000BD4204600F014F838B12168C1F8248023
:103D900084F81D9026770120C4E72168C1F82480AB
:103DA00084F81DA026770020BCE700007F7F7F00FD
:103DB00070B504460068C16821F0A001C160FEF73B
:103DC000A9FF05464FF47A7607E000BFFEF7A2FF91
:103DD000401BB04201D9032070BD2068C068800636
:103DE000F4D5002070BD7047704710B5040003D0B3
:103DF00094F83D0010B107E0012010BD002084F8C8
:103E00003C00204600F01EF8022084F83D00211DF1
:103E1000206801F087F8012084F8460084F83E000D
:103E200084F83F0084F8400084F8410084F84200A0
:103E300084F8430084F8440084F8450084F83D0089
:103E4000002010BD7047000090F83D10012901D0FE
:103E500001207047022180F83D100168CA6842F0D5
:103E60000102CA6000681149884214D0B0F1804F45
:103E700011D00F4988420ED00E4988420BD00E490E
:103E8000884208D00D49884205D00D49884202D0A9
:103E90000C49884204D1816801F00701062903D04A
:103EA000016841F0010101600020704700000140FD
:103EB0000004004000080040000C004000040140E5
:103EC0000040014000180040704770B5044600688B
:103ED00001694FF00005C943890715D4C168C9437A
:103EE000890711D4E91E01610120207720688069CB
:103EF0008007204602D0FFF7E7FF04E000F098F8C3
:103F0000204600F096F8257720680169C9434907E3
:103F100017D4C168C943490713D46FF00401016184
:103F2000022020772068806910F4407F204602D06C
:103F3000FFF7CAFF04E000F07BF8204600F079F8B4
:103F4000257720680169C943090716D4C168C943A8
:103F5000090712D46FF0080101610420207720685E
:103F6000C0698007204602D0FFF7AEFF04E000F0F2
:103F70005FF8204600F05DF8257720680169C943A5
:103F8000C90617D4C168C943C90613D46FF010011C
:103F90000161082020772068C06910F4407F204626
:103FA00002D0FFF791FF04E000F042F8204600F055
:103FB00040F8257720680169C943C90708D1C1685D
:103FC000C943C90704D1891E0161204600F032F8B7
:103FD00020680169C943090609D4C168C9430906B3
:103FE00005D46FF0800101612046FFF7FCFE2068D8
:103FF0000169C943490609D4C168C943490605D4C2
:104000006FF040010161204600F01EF82068016950
:10401000C94389060BD4C168C943890607D46FF028
:10402000200101612046BDE87040FFF7DDBE70BD94
:104030007047704700680349884201D1FFF7FEB816
:104040007047000000100040704770477047000044
:10405000F8B5016804460868CA684B6910F00F0F8C
:104060004FF0000559D003F0010602F49077374372
:1040700065D0C10705D0D10503D5216C41F0010100
:104080002164410705D5D90703D0216C41F0020115
:104090002164810705D5D90703D0216C41F00401C3
:1040A0002164010707D502F02001314303D0216CC0
:1040B00041F008012164216C00293AD0800604D522
:1040C000900602D5204601F0DEFA20684069216C96
:1040D000C0F38010090700D460B3204601F0ACFAA9
:1040E00020684069400621D52068143050E8001F40
:1040F00021F0400140E80012002AF5D1A06BA8B1E0
:104100006C490165A06BFEF776FB002811D0A06B0F
:10411000016D01B0BDE8F040084783060FD5930656
:104120000DD52046BDE8F84001F0ADBA2046FFF7B6
:104130008DFFF8BD2046FFF789FF2564F8BD266B8B
:104140002023012E79D1C60677D5D60675D5086805
:10415000486800904869400640D5A16B08684068EF
:104160000004000CEAD0A28D8242E7D9E085C8693C
:10417000B0F5807F2DD020680C3050E8001F21F46E
:10418000807140E80012002AF5D12068143050E810
:10419000001F21F0010140E80012002AF5D120683B
:1041A000143050E8001F21F0400140E80012002ABE
:1041B000F5D184F83E30256320680C3050E8001FAC
:1041C00021F0100140E80012002AF5D1A06BFEF7A3
:1041D000C9FAA08DE18D401A81B229E0A08DE18D50
:1041E000401A81B2E08D0028A8D00029A6D020680E
:1041F0000C3050E8002F22F4907240E80026002E88
:10420000F5D12068143050E8002F22F0010240E878
:104210000026002EF5D184F83E30256320680C304E
:1042200050E8002F22F0100240E80023002BF5D1C7
:104230002046FFF70AFFF8BDFFE705062BD5150658
:1042400029D594F83D002128F5D1A068B0F5805F0C
:1042500001D12069B0B1206A411C21622168007837
:104260004860E08C401E0004000CE084E3D120682C
:10427000C16821F08001C1602068C16841F040013F
:10428000C160D8E7206A0088C0F308004860206A4F
:10429000801C2062E5E74006CDD55006CBD5CA6824
:1042A000204622F04002CA6084F83D3000F043F915
:1042B000C1E700002956000870B5040004D094F846
:1042C0003D00002510B106E0012070BD84F83C508F
:1042D000204600F023F8242084F83D002068C168BF
:1042E00021F40051C160204601F02EFA20680169D6
:1042F00021F4904101612068416921F02A01416166
:104300002068C16841F40051C1602564202084F810
:104310003D0084F83E00002070BD00002DE9F04112
:1043200086B0064614216846FCF75CFB2F493068CE
:10433000884258D12E480024016841F400210160D0
:10434000006800F40020059029481038016841F009
:10435000040101600068694600F0040005904FF414
:10436000406000900220CDE9010403200390082062
:1043700004902048FEF7C4FB204D1F484FF480688E
:1043800047052860C5E90174C5E903486C61AC6163
:10439000EC612C6228466C62FEF710FB08B1FEF758
:1043A00014F8B563AE63154D134860353030E5E859
:1043B00002074020A5E81101104845F81449603073
:1043C000AC61EC612C626C62FEF7F8FA08B1FDF7A3
:1043D000FCFF7563002205213420AE63FEF7B4FFB5
:1043E0003420FEF7A3FF06B0BDE8F081004C00408A
:1043F000403802400008024040600240680400204B
:1044000090F83E30202B0ED159B152B190F83C308B
:10441000012B08D0012380F83C300023036301F016
:1044200019BA0120704702207047000030B40068BC
:104430001049884215D11048437841880F4A5418D2
:10444000491C4180237041780A2905D041780D2903
:1044500002D041887F2906D343880021D15401210D
:10446000017030BC70470449012230BC491C04482B
:10447000FFF7C6BF004C00409800002060420020BB
:10448000240400202DE9F843044690F83D001F461F
:1044900016460D4620284CD1C5B1BEB194F83C005B
:1044A000012846D0012084F83C004FF00008C4F8F1
:1044B0004080212084F83D00FEF72CFCA684814634
:1044C000E684A068B0F5805F03D004E00120BDE879
:1044D000F883206928B12E465FF0000584F83C80FF
:1044E0000EE00026FAE78021204601F0CEF9A0B9BF
:1044F000AEB116F8010B21684860E08C401EE084E4
:10450000E08C4B464FF0000200970028EBD14FF0B3
:104510004001204601F0B9F930B10320D7E735F862
:10452000020BC0F30800E6E7202084F83D000020DD
:10453000CDE70220CBE770470549064A0968B1FB81
:10454000F2F1414300E000BF491EFCD27047000079
:104550002000002000093D00FEE701684A69D243BF
:1045600052050FD46FF480624A61002140F8301F79
:10457000202242738173026942F0040202610173D6
:1045800001207047002070472DE9F84F044600686D
:1045900089460B9D01689846174641F48061016089
:1045A0002068016841F48071016000954FF0011BA3
:1045B0000022594620460A9B00F0DEF84FF4007AAC
:1045C00040B120680068C00501D5C4F840A00320B0
:1045D000BDE8F88F216809F0FE0008612B462849E4
:1045E00020460A9A00F0FCF8F0BB20684169806917
:1045F00000902A4620460A9900F070F940B1206CDC
:1046000004283AD12068016841F40071016034E067
:10461000FEB2B8F1010F09D02168380A08612A46B4
:1046200020460A9900F05AF90028E8D1206806616E
:104630002A4620460A9900F051F90028DFD1206867
:10464000016841F4807101600095002259462046BE
:104650000A9B00F091F80028B3D1216809F0FF000F
:1046600040F00100086100E007E02B4604492046C5
:104670000A9A00F0B5F80028AAD00120A8E70000A7
:10468000020001002DE9F843044600680D46DDE90B
:10469000089701689846164641F4807101604B46C0
:1046A00000224FF001112046009700F065F848B154
:1046B00020680068C00502D54FF400702064032014
:1046C000BDE8F883216805F0FE0008613B464A46D4
:1046D0001549204600F084F888B92068416980694E
:1046E00000903A464946204600F0F8F848B1206C60
:1046F000042804D12068016841F4007101600120A0
:10470000DEE7F5B2B8F1010F09D02168300A08617F
:104710003A464946204600F0E1F80028E7D12068F3
:1047200005610020CCE700000200010070B51646CC
:104730000D4604460DE02046FFF70FFF08B10120AB
:1047400070BD681C05D0FEF7E5FA801BA84207D8AB
:1047500035B120684069C0434007ECD4002070BDEB
:10476000002044F8300F20216173A073216941F0CB
:10477000200121612073E2E72DE9F0471E469046B3
:104780000D460446C1F30747DDF8209008E0701C91
:1047900006D0FEF7BFFAA0EB0900B0420FD876B101
:1047A0002068012F18D0806925EA00000004000C61
:1047B00014D000214145EAD00020BDE8F087002058
:1047C00044F8300F20216173A073216941F020016A
:1047D000216120730120F0E74069E5E70121E9E765
:1047E0002DE9F0479A4691460E46044600254FF0C3
:1047F0002008C1F3074725E020684069C043400511
:1048000014D42068016841F40071016021686FF4DC
:1048100080604861256384F83D8084F83E50206CB8
:1048200040F00400206484F83C501FE0B9F1FF3FE1
:1048300008D0FEF76FFAA0EB0A0149450CD8B9F190
:10484000000F09D02068012F13D0806926EA0000EC
:104850000004000C0BD0CFE744F8305F84F80D80E3
:10486000A573206940F02000206125730120BDE878
:10487000F0874069EAE72DE9F041002590460E46B1
:104880000446202717E04069C043C0060CD454F802
:10489000301B6FF01000486144F810596777A57716
:1048A000206A2062257717E0FEF734FAA0EB0800B3
:1048B000B04208D83EB120684169C9434906E2D4F4
:1048C0000020BDE8F08144F8305F6773A57320696C
:1048D00040F02000206125730120F2E770B51646F4
:1048E0000D4604460DE02046FFF737FE08B10120D3
:1048F00070BD681C05D0FEF70DFA801BA84207D8D2
:1049000035B120684069C0430006ECD4002070BD7A
:10491000002044F8300F20216173A073216941F019
:10492000200121612073E2E77FB500211B4800913F
:1049300001910291184A0391026001244FF48032E0
:104940000461C0E90121047680F82010144AC0E90E
:104950000A210225C561C16080F830404461FDF73D
:10496000E0FD08B1FDF731FD0D20CDE90004072081
:10497000029069460948FDF72BFD08B1FDF725FDBA
:104980000C20CDE9000569460448FDF721FD00280B
:1049900001D0FDF71AFD7FBD002001400803002073
:1049A0000100000F154808B5016841F400110160CD
:1049B000016801F400110091016841F48001016077
:1049C0000068002200F48000009005210D20FEF711
:1049D000BBFC0D20FEF7AAFC002205210F20FEF7EC
:1049E000B3FC0F20FEF7A2FC002205213820FEF7C1
:1049F000ABFCBDE808403820FEF798BC30380240D8
:104A000010B59EB000201C901D901CA801F051FB19
:104A1000174C1C22174920616846FBF78FFF0021C5
:104A2000684601F0A9FB134920601C221C3107A82D
:104A3000FBF784FF002107A801F09EFB0D49606091
:104A40001C2238310EA8FBF779FF00210EA801F0D7
:104A500093FB0849A0601C22543115A8FBF76EFF98
:104A6000002115A801F088FBE0601EB010BD000019
:104A700000000020D48000082DE9F04186B0142108
:104A80006846FBF7AFFF27480024016841F010019A
:104A90000160016801F010010591016841F0040115
:104AA0000160016801F004010591016841F0800195
:104AB0000160016801F080010591016841F0010188
:104AC0000160016801F001010591016841F00201F6
:104AD00001600068144F00F00200059000224021A0
:104AE0003846FEF712F9DFF844804FF440560022B2
:104AF00031464046FEF709F9402000900125CDE9F6
:104B00000154694638460394FDF7FAFF0096CDE953
:104B10000154694640460394FDF7F2FF06B0BDE834
:104B2000F0810000303802400010024000080240CE
:104B30000D4810B50B4901600C49416000214FF44C
:104B400080428160C0E9031241618161C1610162FB
:104B5000FEF7E6F8002803D0BDE81040FDF735BCAD
:104B600010BD000000540040B0030020A0860100EA
:104B700030B587B014216846FBF734FF2448002481
:104B800022490594C0E900147F218160FF21C0E91A
:104B9000031444618461FEF7BFFF08B1FDF715FC03
:104BA00001211B48FEF760FF43F2F225A8422AD0FC
:104BB00021208DF8000005208DF801008DF80240BD
:104BC00003940122694612480494FFF77BF808B168
:104BD000FDF7FBFB01208DF8140003208DF8150074
:104BE00010208DF8160026208DF81700012205A947
:104BF0000748FFF703F808B1FDF7E7FB2A46012154
:104C00000348FEF736FF07B030BD00000028004023
:104C1000040400200C4810B50A4901604FF41651F5
:104C20004160002181600C22C160C0E904128161F1
:104C3000C161FFF741FB002803D0BDE81040FDF73C
:104C4000C4BB10BD004C004024040020FEE7FEE77A
:104C5000010901EB810100F00F0000EB4100C0B23F
:104C60007047002102E00A38C0B2491C0A28FAD273
:104C7000090740EA1160704770B504460068C168D2
:104C8000490614D44FF0FF31C160FEF743F80546E2
:104C90004FF47A7607E000BFFEF73CF8401BB042C5
:104CA00001D9032070BD2068C0684006F4D50020FB
:104CB00070BD00F073FA012001F0EFF9FBE700F09E
:104CC0001BFA012001F0E9F9FBE700F051FA01209D
:104CD00001F0E3F9FBE700F0EFFA012001F0DDF964
:104CE000FBE7000070B50D4C05466068002814D045
:104CF000002D12D04FF0FF3102F0C0F901280CD185
:104D0000182207492846FBF719FE6068BDE8704085
:104D100000231A46194602F065B870BDAC000020A9
:104D2000E042002010B5074C606818B9012001F07E
:104D3000A9FF60602068002802D101F01BFF2060FD
:104D400010BD0000AC00002070B50D4C0546606839
:104D5000002814D0002D12D04FF0FF3102F08EF950
:104D600001280CD1182229460648FBF7E7FD6068A8
:104D7000BDE8704000231A46194602F033B870BDF2
:104D8000AC000020E042002010B5502080F31188D4
:104D9000BFF34F8FBFF36F8F02F0CCFA18B1044905
:104DA0004FF080500860002080F3118810BD000093
:104DB00004ED00E030B593B030216846FBF712FEF9
:104DC00014210CA8FBF70EFE1E480025016841F0D7
:104DD00080510160006800F0805011901A4801680D
:104DE00041F4804101600068022400F48040119089
:104DF000052000904FF48030019001200290800542
:104E0000CDE9064008AA0420A82182E813000B90EF
:104E10006846FEF773FC08B172B6FEE70CA90F20D6
:104E200081E831004FF4A0500F904FF48050109063
:104E300005210CA8FEF758FB002801D072B6FEE74A
:104E400013B030BD40380240007000400248016895
:104E500041F470010160704788ED00E010B592B038
:104E6000044614216846FBF7BDFD002205A927482A
:104E7000FEF726FE002210A92448FEF7FFFD9DF84C
:104E800043008DF800009DF841008DF801009DF869
:104E900042008DF802009DF814008DF803009DF883
:104EA00015008DF804009DF816008DF805008DF8AA
:104EB00012400AA8FFF716FF0D98CDF806000B98D0
:104EC000CDF80E00124869460068CDF80A000020AF
:104ED0008DF813000B5C9DF81320401C1A448DF8CC
:104EE00013201328F6D30B4C4FF4FA71206801F00D
:104EF00011F910B1012012B010BD6846FDF792F90A
:104F0000206801F0DFF80020F5E70000040400202D
:104F100094000020100000200148FEF7D6BF0000DA
:104F200028050020F0B50268254C264D264E274F57
:104F3000274B4FF0804CA04209D0604507D0A842D3
:104F400005D0B04203D0B84201D0984204D122F03B
:104F5000700E4A6842EA0E02A0421BD0604519D08A
:104F6000A84217D0B04215D0B84213D0984211D001
:104F7000184DA8420ED0184DA8420BD0174DA8428C
:104F800008D0174DA84205D0164DA84202D0164DA4
:104F9000A84203D122F44075CA682A434D6922F021
:104FA00080022A4302608A68C2620A688262A04262
:104FB00001D0984201D10969016301214161F0BD2D
:104FC000000001400004004000080040000C0040C8
:104FD00000040140004001400044014000480140FD
:104FE00000180040001C00400020004010B50C4C90
:104FF000002240212046FDF788FE0520FFF79CFA9D
:10500000012240212046FDF780FE0220FFF794FA9E
:1050100020460022BDE810404021FDF776BE00008A
:105020000004024010B50E4C012240212046FDF73D
:105030006CFE012280212046FDF767FE0220FFF76B
:105040007BFA002280212046FDF75FFE0220FFF759
:1050500073FA20460022BDE810404021FDF755BEFE
:105060000004024010B5104C002240212046FDF7FC
:105070004CFE0220FFF760FA002280212046FDF757
:1050800044FE0220FFF758FA012240212046FDF796
:105090003CFE0220FFF750FA20460122BDE81040F6
:1050A0008021FDF732BE00000004024070B5114EB1
:1050B00005460024002240213046FDF726FEE80781
:1050C00001D0012200E0002280213046FDF71DFEC4
:1050D0000320FFF731FA6D08012240213046FDF729
:1050E00014FE0320FFF728FA641CE4B2082CE1D375
:1050F00070BD0000000402402DED028B86B002223C
:1051000019491A48FDF784FA4FF4FA7001F02AFCA5
:10511000154DF2EE048A2C46288800F0B9FE08EE00
:10512000100A688800F022FFF8EEC80A00EE100AA4
:10513000684680EEA81AB8EEC00AC0EE280A84EDD0
:10514000011AC4ED020AFFF7CDFD94ED010A68468D
:105150008DED030A94ED020A8DED010AFFF7F4FDCF
:10516000642001F0FFFBD7E79C000020080300202B
:10517000002464253226641CB4FBF5F005FB1040C6
:1051800008B9FDF747F8B4FBF6F006FB104008B984
:10519000FDF73AF80A2001F0E5FBECE72DED028B74
:1051A00086B0FCF753FF404D404CF6EE008A0026D7
:1051B000B0EE008A6846FFF795FD9DED030A84ED89
:1051C000010AFCF76FFFE8B3FF2843D02178F428E9
:1051D00002D001290ED02DE029B12670287820F0C8
:1051E0000400287033E001212170297841F0040186
:1051F00029700FE0F52802D0F62805D00AE094EDDA
:10520000020A30EE280A03E094ED020A30EE680A42
:1052100084ED020A264AA168914203DDB3EE0E0A2C
:1052200084ED020A234AA168914203D9BBEE0E0A1B
:1052300084ED020AF7280AD12670287820F00400AD
:10524000287000E006E0B9EE040A84ED020AC820E6
:1052500001F088FB207810B194ED020A1DE0D4ED36
:10526000020A94ED010A30EE881AB4EEC01AF1EE8B
:1052700010FA05D2287820F0080040F090000BE0EA
:1052800070EEC80AF4EEC00AF1EE10FA05DD2878D7
:1052900020F0900040F008002870FCF737FF322023
:1052A00001F060FB86E70000A80000208C000020D1
:1052B0000000F0410000F0C1B2B0FFF733FDFCF791
:1052C000F7FFFCF7D3FF642000F0E7FE7CA0FCF7BB
:1052D000F7FF012282498348FFF792F8804DDFF8FB
:1052E00008B24FF000096D1E2878012877D17FA100
:1052F0007F48FBF7ADFAB0B112A8FFF7F3FC1398A3
:1053000002F06AFE06460F46159802F065FE41EC73
:10531000100B78A153EC102B02A8CDE90067FBF726
:1053200093F802A8A8E07DA17148FBF791FA30B18B
:105330009920FFF793FD00287ED17AA09CE07DA103
:105340006B48FBF785FA002850D07CA0FCF7B8FF2B
:105350004FF47A71DBF8000000F0DCFEF0BBFCF7E4
:105360007FFF07464FF0050800244FF0640A381B02
:10537000633090FBFAF20AFB1206F0B20CA9FCF7BC
:105380008BFF9DF8300028B3DDF8360002F024FED4
:10539000CDE908019DF833000DF10C0C9DF8423069
:1053A0009DF835209DF834108CE80F009DF83000F2
:1053B0009DF832209DF831108DE8070033462246D3
:1053C000664911A8FBF740F811A8FCF779FF0A20FD
:1053D00000F063FE641C4445C9DB01E004E069E0C1
:1053E000DBF8000000F06EFE5DA045E063A14048E0
:1053F000FBF72EFA002841D00AAB09AA0BA908A88E
:105400008DE80F0006AB05AA5EA13948FBF75CF9F1
:10541000062801D062A02FE014216846FBF7E2FACB
:105420000B998DF8001009998DF801100A99CDF8A3
:105430001C908DF8021000E020E001208DF81C0087
:105440000698CDF80C908DF81D0008988DF8039003
:105450008DF81E0005988DF81F00CDF810900022E1
:1054600069465C48FEF72EFC28B9002207A9594876
:10547000FEF7C4FB10B358A0FCF722FF4C46A5F87A
:10548000029080211A48FBF78BFA2C7015490868A6
:1054900002684268019202684268019202684068AC
:1054A00000900C64202081F83E0001220C490D4838
:1054B000FEF7A6FF322000F0F0FD15E74EA0DBE777
:1054C0000D0A2D2D2D2053696D706C65204D6F6474
:1054D0006520526561647921202D2D2D0D0A000073
:1054E00099000020240400201000002047455400AB
:1054F00060420020545F457661702831304B293A74
:10550000252E3166207C20545F4578682835304B45
:10551000293A252E31660D0A0000000054455354E7
:105520000000000054657374205361766564210D9A
:105530000A00000052454144000000000D0A2D2DD4
:105540002D204C4154455354204C4F472053544137
:105550005254202D2D2D0D0A00000000BC820008A1
:105560002D2D2D204C4154455354204C4F47204560
:105570004E44202D2D2D0D0A00000000534554549B
:10558000494D450053455454494D453A25642D2510
:10559000642D25642C25643A25643A2564000000B6
:1055A000466F726D6174204572726F722120506C6B
:1055B00073207573653A2053455454494D453A5903
:1055C000592D4D4D2D44442C48483A4D4D3A535396
:1055D0000D0A0000040400204552524F523A205256
:1055E0005443204861726477617265204661756C2E
:1055F00074210D0A000000005254432054696D6567
:1056000020557064617465642053756363657373BA
:1056100066756C6C79210D0A000000000148FEF7E8
:1056200017BD00002404002010B5806B0021C18547
:10563000C184FEF70BFD10BD01680C3151E8002F4D
:1056400022F4907241E80023002BF5D10168143157
:1056500051E8002F22F0010241E80023002BF5D190
:10566000016B012909D101680C3151E8002F22F0AA
:10567000100241E80023002BF5D1202180F83E10D4
:1056800000210163704708B590F83E10222901D02F
:10569000022008BD82684FF480539A4201D101690B
:1056A00021B1816A9A421BD04AB10AE00268816A3C
:1056B0005268C2F308020A80816A891C08E0026904
:1056C00072B10268526802F07F020A70816A491C56
:1056D0008162C18D491E0904090CC18503D019E0FE
:1056E00002685268F1E70168CA6822F02002CA60C5
:1056F0000168CA6822F48072CA6001684A6922F0AF
:1057000001024A61202180F83E10016B012903D07B
:10571000FEF78CFE002008BD0021016301680C31FA
:1057200051E8002F22F0100241E80023002BF5D1B0
:1057300001680A68D20602D50A6849680091818D1D
:10574000FEF783FCE6E7000070B5044600680169D7
:10575000E26821F44051114301612169A068E269C6
:1057600008436169114308432168CA6849F20C6320
:105770009A430243CA6020684169A26921F44071DA
:105780001143416131492068884202D03049884242
:1057900002D1FDF773FF01E0FDF760FFE26900232E
:1057A000192164253226B2F5004F626828D0A0FB8B
:1057B0000101930F9200FAF7CFFD0146B0FBF5F01F
:1057C0006FF01802504301EB800006EB0010B0FBB5
:1057D000F5F000F0F002B1FBF5F002EB0012B1FBC6
:1057E000F5F06FF01803584301EB800006EB001052
:1057F000B0FBF5F000F00F0021681044886070BD28
:10580000A0FB010192185B41FAF7A6FD0146B0FB2F
:10581000F5F00201B1FBF5F06FF01803584301EB0E
:10582000800006EBC000B0FBF5F000F0F80002EBE2
:105830004002B1FBF5F0584301EB800006EBC000DD
:10584000B0FBF5F000F00700D6E7000000100140C3
:105850000014014081628285C285002101642222F8
:1058600080F83E2080F83C100168CA6842F48072DB
:10587000CA6001684A6942F001024A610068C16871
:1058800041F02001C160002070472DE9F0419846A9
:1058900017460E460446069D27E0681C25D02DB10C
:1058A000FDF738FAA0EB0800A8421ED920680C309A
:1058B00050E8001F21F4D07140E80012002AF5D111
:1058C0002068143050E8001F21F0010140E8001268
:1058D000002AF5D1202084F83D0084F83E00002005
:1058E00084F83C000320BDE8F0812068006836EAB7
:1058F000000004D00020B842CFD00020F3E7012000
:10590000F9E7FEE703B401984100009850EAC1208E
:1059100018BF04204A0D18BF40F0010040F2FF728A
:10592000B2EB515F08BF40F00200012808BF05201C
:1059300002B070470907090E002804DB00F1E020DF
:1059400080F80014704700F00F0000F1E02080F8AC
:10595000141D70470000000070B5D94B00242DEDD8
:10596000020B2DED108BDDE91010984205DA20F0C6
:1059700000429A4201D809D141B19DED100BBDEC16
:10598000108B02B0BDE8704000F05EBAB0F5801F29
:1059900026DA11430BD0002813DA0120FBF751F867
:1059A000BDEC108B02B0BDE8704000F059BA022087
:1059B000FBF747F800F030FA51EC100B01F07AFEDB
:1059C0009EE06FF035049FEDC00B53EC102B9DED66
:1059D000100B51EC100B02F00BF9CDE91001084649
:1059E00004EB2051C0F31304B948A1F2FF31204465
:1059F00000F4801080F07F6282F04052224301EB7D
:105A000020559FEDB50B119253EC102B9DED100B13
:105A100051EC100B02F0F6F941EC180BA01CC0F38E
:105A200013009FEDAFDB9FEDB0EBB14E7E4403283A
:105A30006CD296ED000B51EC180B53EC102B02F0CE
:105A400083F81DD1002D01BF96ED000BBDEC108B2E
:105A500002B070BD284602F0B3F841EC180B53ECCD
:105A60001D2B02F0C5F841EC190B53EC1E2B51EC29
:105A7000180B02F0BDF853EC192B01F059FE3FE072
:105A80009FED9D0B51EC180B53EC102B02F0B0F86E
:105A90009FED9B1B53EC112B02F0A8F941EC190B65
:105AA00053EC182B51EC180B02F0A2F853EC192B05
:105AB00002F09EF841EC190B002D04BF53EC192B9A
:105AC00051EC180B1AD0284602F07AF841EC1A0B68
:105AD00053EC1D2B02F08CF853EC192B02F086F9D5
