:020000040800F2
:1000000048080020AD020008AD3A0008A53A0008F3
:10001000A93A0008A122000851420008000000008F
:10002000000000000000000000000000F53B000898
:10003000A522000800000000AF3A0008F73B0008C6
:10004000D1020008D1020008D1020008D102000844
:10005000D1020008D1020008D1020008D102000834
:10006000D1020008D1020008D1020008D102000824
:10007000D1020008D1020008D1020008D102000814
:10008000D1020008D1020008D1020008D102000804
:10009000D1020008D1020008D1020008D1020008F4
:1000A000D1020008D1020008D1020008D1020008E4
:1000B000D1020008D1020008153C0008D102000856
:1000C000D1020008D1020008D1020008D1020008C4
:1000D000D102000841420008D1020008D102000804
:1000E000D1020008D1020008D1020008D1020008A4
:1000F000D1020008D1020008D1020008D102000894
:10010000D1020008D1020008D1020008D102000883
:10011000D1020008D1020008D1020008D102000873
:10012000D1020008D1020008D1020008D102000863
:10013000D1020008D1020008D1020008D102000853
:10014000D1020008D1020008D1020008D102000843
:10015000D1020008D1020008D1020008D102000833
:10016000D1020008D1020008D1020008D102000823
:10017000D1020008D1020008D102000800000000EE
:10018000D1020008D102000800F002F800F07EF869
:100190000AA090E8000C82448344AAF10107DA45E2
:1001A00001D100F073F8AFF2090EBAE80F0013F0B6
:1001B000010F18BFFB1A43F00103184730D30000AA
:1001C00050D300000A444FF0000C10F8013B13F02C
:1001D000070408BF10F8014B1D1108BF10F8015BA0
:1001E000641E05D010F8016B641E01F8016BF9D193
:1001F00013F0080F1EBF10F8014BAD1C0C1B09D1EA
:100200006D1E58BF01F801CBFAD505E014F8016B5B
:1002100001F8016B6D1EF9D59142D6D370470000ED
:100220000023002400250026103A28BF78C1FBD8FF
:10023000520728BF30C148BF0B607047662909F0DC
:100240005B86642900F02C81752900F029817829CA
:1002500000F06281632900F0F784732900F0FC84C8
:10026000002070471FB509F03AFE00F05DFD040064
:100270000020002109F07AFB401C60600020002172
:1002800009F05EFBE0601FBD10B510BD00F094FEEC
:100290001146FFF7E7FF07F0E1FE01F037F903B47D
:1002A000FFF7F2FF03BC04F045F900000C480168B9
:1002B00041F4700101600B4880470B480047FEE79E
:1002C000FEE7FEE7FEE7FEE7FEE7FEE7FEE7FEE706
:1002D000FEE7000005480649044A064B7047000047
:1002E00088ED00E0013C0008890100084804002076
:1002F0004808002048040020704753EA020C00F030
:1003000069802DE9F04B4FF00006002B1FBFB3FAB8
:1003100083F503FA05F424FA05F65E4012BF16438E
:10032000B2FA82F502FA05F4C5F120051EBF22FAE1
:1003300005FC44EA0C04203556EA044C4FEA144408
:1003400018BF641C4FF000084FF00009904271EB99
:10035000030C39D3002919BFB1FA81F701FA07F666
:10036000B0FA80F700FA07F6C7F120071EBF20FA9F
:1003700007FC46EA0C062037B6FBF4FCA7EB0507A2
:10038000103F07F01F0BCBF120060CFA0BFB2CFAE9
:1003900006F644BFB3460026202FA4BF5E464FF0AA
:1003A000000B5BEA060C08BF4FF0010B19EB0B09C1
:1003B000ABFB027C48EB0608C01B06FB02CC0BFB28
:1003C00003CC71EB0C01C1E70B460246414648469F
:1003D000BDE8F08B13B54FF000004FF00001AFF314
:1003E0000080BDE81C4070470FB4044910B503AA53
:1003F000029800F035FC10BC5DF814FB18000020DA
:1004000070B5044685690068C10601D5302600E054
:100410002026C00707D070BDD4E90121304690479F
:10042000206A401C20626D1EF6D570BD70B5044672
:1004300085690078C00707D170BDD4E9012120206B
:100440009047206A401C20626D1EF6D570BD70B5C5
:100450000C460546012A05D02878800600D5EA69B1
:10046000002302E0012305E05B1C934202D2E05C22
:100470000028F9D1A869E618C01AA861286A1844AA
:1004800028622846FFF7BCFF04E0D5E9012114F8F3
:10049000010B9047B442F8D32846FFF7C7FF70BD61
:1004A0002DE9F0410646002410687529314616A54D
:1004B00010D0AFF30080002802DA404213A507E015
:1004C00031688A0701D512A502E0490704D511A5B4
:1004D000012401E0AFF3008000210A2206F1240785
:1004E00009E0B0FBF2FCB0FBF2F302FB1C00303081
:1004F00078541846491C0028F3D123462A46304632
:10050000BDE8F04100F02EB9000000002D00000011
:100510002B0000002000000070B504460D46214667
:100520001068AFF300802188090502D50F4A7A448C
:1005300002E00E4A7A440E32002104F1240305E061
:1005400000F00F060009965D5E54491C0028F7D1A3
:1005500020780023000704D5702D02D009B10223B2
:1005600011322046BDE8704000F0FCB877CA0000A8
:100570002DE9F05F894604464FF0000ADFF874B1B8
:10058000FB44C0F820A02046E1688847002874D0CA
:10059000252806D0D4E901219047206A401C20621A
:1005A000F1E700265F462046E16888472028054697
:1005B00007DB312D05D2781910F8200C08B106435D
:1005C000F1E7B00701D526F00406C4F81CA0002707
:1005D000C4F818A02A2D09D0284603F0A4FF38B388
:1005E00004EB8708303DC8F8185019E059F8041B8F
:1005F000204604EB87029161E1688847012F054698
:1006000018D1E069002820DA26F020061DE0D8F88D
:10061000180000EB800005EB40003038C8F81800E7
:100620002046E1688847054603F07DFF0028EED1AB
:10063000012F0AD02E2D08D12046E16888477F1C63
:100640000546022F46F02006C4DBA069002803DA25
:10065000404246F00106A061F00701D026F01006E6
:100660006C2D0BD0682D09D04C2D39D06A2D35D08A
:10067000742D35D07A2D33D016E038E0E1682F465E
:1006800020468847B842054609D16C2F26D04FF442
:100690008060E168064320468847054604E06C2FE9
:1006A0001AD04FF4807006430DB3A5F1410019280C
:1006B00002D8203546F400664A4629462046266080
:1006C0004E46FFF7BBFD80B101280BD0F61D26F08A
:1006D000070000F1080956E74020E4E78020D8E74A
:1006E0000020D6E706F104094DE7284652E7206AC4
:1006F000BDE8F09F4DCA00004FF0000200B5134660
:1007000094469646203922BFA0E80C50A0E80C5031
:10071000B1F12001BFF4F7AF090728BFA0E80C50E2
:1007200048BF0CC05DF804EB890028BF40F8042BDB
:1007300008BF704748BF20F8022B11F0804F18BF48
:1007400000F8012B7047704770477047704710B52D
:1007500000F0EEFA006810BD10B5044600F0E8FAAB
:10076000046010BD2DE9F0470D46994692460446B7
:1007700000F124080168880604D5E06921F0100121
:10078000216000E00120A84201DD471B00E00027B6
:10079000A1697A1902EB0900081AA0612078C00645
:1007A00002D42046FFF72CFE002608E0D4E9012100
:1007B0001AF806009047206A401C761C20624E45BD
:1007C000F4DB2078C0060AD52046FFF719FE06E0C4
:1007D000D4E9012130209047206A401C2062381E55
:1007E000A7F10107F4DC07E0D4E9012118F80500BE
:1007F0009047206A401C2062281EA5F10105F3DC09
:100800002046FFF713FE2078000602D50220BDE83F
:10081000F0870120FBE770472DE9FF4F0C461E468D
:100820004FF0FF378BB0D2E90001DDF860800A900D
:100830008A46C1F30A5505B93D46002108464FF0E6
:100840000000BAF1000F00F4400005DA00EB800070
:100850004FF4400101EA50004FEA9059B9F1010FFD
:1008600000DDB9460A9850EA4A000ED044F610500E
:10087000A5F2FF3545432F14B8F1000F1ED0754285
:10088000291E1EDDC9F100021CE0B8F1010F4FF076
:10089000000001D0302103E0F24305E02154401C68
:1008A000B042FBDB30460022002121540B99C1F8F5
:1008B0000880C1E900200FB0BDE8F08FBD1B6D1CA2
:1008C000DEE74A4600DA694206A800F0FBFA06AB0A
:1008D00093E8070003AB83E8070050460A9901F04C
:1008E000AAF88DE80700A0F500501F380090039883
:1008F000002D0ADD42F21F014A460844002303A9E5
:100900000390684601F056FB09E0A0F500504A4606
:100910001F38002303A90390684601F075FB8DE89A
:1009200007000004000C03D04FF0FF30410800E046
:100930001046B8F1000F03D00022009215461EE0C9
:10094000751E05D400F0F8F9303262556D1EF9D5E8
:10095000B3460122084302D000227F1C04E0207825
:10096000302801D100227F1E002A099784D01DE083
:10097000112D07DA00F0E0F9303262556D1C50EAB3
:100980000102F5D1084302D00098C8B10EE0002161
:10099000681E05E0235C625C63542254401E491CBF
:1009A0008142F7DBAB46A81B401E0990002004F8EB
:1009B0000B000B98099AC0F80880C0E9002B7AE771
:1009C00011264FF0000857E72DE9F04F88460446FE
:1009D000D21D22F0070191B0D1E90001CDE90A0151
:1009E00003F038FC02460B98C00F01D02D2007E021
:1009F0002068810701D52B2002E0202101EAC000F8
:100A0000032A099001D0072A05DB03464146204608
:100A100000F0F8F90BE12078800601D5E06900E0EC
:100A20000620B8F1650F814606D0B8F1660F18D0E0
:100A3000B8F1670F70D131E00020B9F1110F0090CB
:100A400001DB112301E009F101030AAA01A90CA8A5
:100A5000FFF7E2FEDDE90C70002609F1010583468F
:100A600047E001204B4600904FF000470AAA01A939
:100A70000CA8FFF7D1FEDDE90DB00C995D4600260C
:100A800010B909F101000D18B9EB050003D4C0F14C
:100A9000FF3609F10105A5EB09002BE0B9F1010FC3
:100AA00001DA4FF001090020B9F1110F009048461A
:100AB00001DD112300E003460AAA01A90CA8FFF7F3
:100AC000ABFEDDE90C704D4600268346207800071A
:100AD0000AD4AB4500DA5D4601A8012D04DD4119B9
:100AE00011F8011C302907D04F4502DA17F1040F25
:100AF00004DA012082460FE06D1EEEE7002F02DCD3
:100B0000ED1B3E4403E0781CA84200DD7D1CB81BB1
:100B100000F1010A4FF000472078000703D4AA45EE
:100B200001DB4FF0FF3A0021B7F1004F0DF1430810
:100B30008DF8431024D002202B23002F01DA7F42AE
:100B40002D230A21021EA0F1010000DC5FB197FBFA
:100B5000F1FC97FBF1F201FB1C7C17460CF1300C09
:100B600008F801CDEEE7A8F101000370218809051E
:100B700001D5452100E06521A0F1010800F8011C24
:100B800009980FA9A1EB0807FF1D00B10120411929
:100B900001EBEA70A1693844081A401EA061207870
:100BA000C00602D42046FFF72BFC099828B1D4E9EF
:100BB00001219047206A401C20622078C00622D57F
:100BC0002046FFF71DFC1EE0002E04DBB34502DDCE
:100BD00001A8805D00E03020D4E901219047206A1F
:100BE000401C2062761CAAF101005FEA000A0AD1CB
:100BF00000F09AF8C0680168405CD4E90121904790
:100C0000206A401C2062281EA5F10105DCDC07E0FB
:100C1000D4E9012118F8010B9047206A401C20629A
:100C2000381EA7F10107F3DC2046FFF7FFFB032086
:100C300011B041E610B5436913B1AFF3008001E094
:100C4000FFF705FC012010BD127800F124010A70A5
:100C500000224A700122EDE711684FF0FF32E9E708
:100C6000074B70B50D467B4400F0B9F804462846A2
:100C700000F09AF910B14FF0FF3070BD204670BD02
:100C8000373900000FB4002300B589B00CA90091DA
:100C90000B99CB60214B7B440693214B7B440793FC
:100CA00004236FF00042CDE901321E4A7A446B46BC
:100CB00008920246002009F081F909B05DF814FBA2
:100CC00070B506464FF0FF3015460C46324686B0EA
:100CD0000091CDE9010169460020049004A8FFF7C6
:100CE000D1FF02460498211825B108B1084600E05A
:100CF00020462860049800280DD0002A02DD0098C4
:100D0000884208D03246081B69460094CDE90104A8
:100D100004A8FFF7B7FF06B070BD0000EB010000AC
:100D20000302000013010000004870470404002083
:100D300000487047E403002030B5B0F10A024FEAE2
:100D4000900E71F100034EEA817EB0EB0E0061EB74
:100D500091014FEA101E4EEA017E10EB0E0041EBAE
:100D600011114FEA102E4EEA016E10EB0E0041EB0E
:100D700011214FEA104E4EEA014E10EB0E0041EBEE
:100D80001141401841F100014FEAD00040EA4170A2
:100D90004FEAD10110EB80054FEA810444EA9074D8
:100DA00044EB01046D1944EB0404521BA3414FF0C2
:100DB000000348BF0A3200D530BD401C41F100019C
:100DC00030BD10B5044600F01DF90068005D00F06C
:100DD000010010BD01694A1C02610878704700B526
:100DE0008FB0CDE901310021059105497944CDE964
:100DF000031011466846FFF7BBFB0FB000BD0000B3
:100E0000E5FFFFFF2DE9F0411F4604460326016878
:100E1000072A01F4006004DB08B116A505E016A559
:100E200003E008B115A500E015A521F01000206031
:100E3000A069C01EA0610FB1401EA0612046FFF74F
:100E4000DFFA4FB1D4E9012138469047206A401CAF
:100E50002062C01C206206E0206AFAE7D4E9012182
:100E600015F8010B9047761EF8D22046FFF7DEFA00
:100E7000BDE8F0814E414E006E616E00494E460065
:100E8000696E6600426842B1016811F8013B23B106
:100E9000521EC0E90012184670470121C160881E29
:100EA000704742685AB1C368016843B983688B428E
:100EB00005D0491E521CC0E90012002070474FF0B7
:100EC000FF3070472DE9F047814616468AB0354815
:100ED00078440DC88DE80D0032487844801C03AC7E
:100EE0000DC884E80D0041F69B300844372190FB83
:100EF000F1F290FBF1F5A5F1800501FB12041B3C1A
:100F000002D56442012000E00020DFF898A080466E
:100F10000027FA44AAF1BE0A0EE0E0070AD03246E2
:100F2000684607EB470101230AEB810101F06CF8E9
:100F30008DE8070064107F1C002CEED1194F7F4410
:100F4000AE3F19E0E80715D007EB04100DF1180AC1
:100F500090E80E008AE80E00C068F04201D19819AE
:100F600008903246012306A903A801F04DF803AB0F
:100F700083E807006D10641C002DE3D14FF00103DE
:100F800032466946B8F1000F03A802D001F012F80A
:100F900001E001F039F8C9E90001C9F808200AB0F8
:100FA000BDE8F0878CC10000007B00F08000704736
:100FB00000487047E40300207546FFF7F9FFAE468E
:100FC00005006946534620F00700854618B020B555
:100FD000FFF780F9BDE820404FF000064FF0000712
:100FE0004FF000084FF0000B21F00701AC46ACE8D1
:100FF000C009ACE8C009ACE8C009ACE8C0098D463E
:101000007047000010B5FFF78FFE001D10BD00BF38
:101010005D8900002DE9FF4F06468BB00878FF2858
:1010200006D0491C2D2805D000244FF0000908E007
:1010300000200CE00124F8E709EB8903491C00EBD0
:1010400043090878FF28F7D114B1C9F1000081469F
:10105000107800252C46AA4629462D2801D02B2899
:1010600004D1521C2D2813D0002082468B461078C4
:10107000FF280FD04FF0000C0A21521CA5FB01786D
:1010800004FB018105FB0C11C5194BEB0104EEE7D4
:101090000120EAE7002108464FF00000BAF1000FF6
:1010A00002D000EB80004008C0F38157012F01DD22
:1010B0004FF0FF370E9955EA040009EB01080BD0F9
:1010C0004FF0020918F5FA7F16DA4FEACA70002FBE
:1010D000706008DD012007E04FEACA70C6E900B081
:1010E0000FB0BDE8F08F00203060FFF721FEC0F8A0
:1010F00000901821084616E0B8F5FA7F18DD002F99
:1011000002DAF748784401E0F6487844D0E9001064
:10111000C6E9001040EACA707060FFF709FEC0F827
:101120000090142108460FB0BDE8F04F08F0E1BE72
:10113000002108464FF00000B8F10001099002DAE2
:10114000C7F1000200E03A4601DAC8F1000106A842
:10115000FFF7B8FE06AB93E8070003AB83E8070090
:1011600044F23E005BEA04010090584604D144F288
:101170001E012C465D460091210C0904014306D155
:101180000099240444EA15442D041039009104F018
:101190007F41014306D10099240244EA15642D02DF
:1011A0000839009104F07041014306D100992401EF
:1011B00044EA15742D01091F009104F040410143D8
:1011C00006D10099A40044EA9574AD00891E0091EF
:1011D00004F00041084304D100986D196441401E99
:1011E00000904FF001033A466846B8F1000FCDE990
:1011F000014503A902DD00F01CFF01E000F0EFFE55
:10120000BAF1000F04460D4601D084F000440021DD
:1012100008464FF00000099940F2FF77484010F06F
:101220000C0F07D124F00040284303D0C4F30A5028
:10123000B84212D1FFF77CFDC0F80090C4F30A5009
:10124000B8420AD1A8487844D0E90010C6E9001095
:1012500004F000410843706042E7C6E900543FE7EC
:101260002DE9FF4F1F464FF0000A4FF0FF3845466B
:1012700091B0D7E90146CDF83CA0FFF755FDC06815
:101280000168405C1090B96912986D1C8847396AF2
:10129000814688470028F6D1B9F1FF3F0AD0002ED9
:1012A00024F4D06411DDB9F12B0F08D0B9F12D0F62
:1012B0000BD102E0404615B013E744F48064B969ED
:1012C00012986D1C8847761E8146600504A901D5D9
:1012D0002D2000E02B20002E01F1010B0DF1300834
:1012E0008DF810003FDDB9F1690F08D0B9F1490F51
:1012F00005D0B9F16E0F02D0B9F14E0F1CD13B46AB
:1013000001A8009580E85002DDE912126FF002009A
:1013100008F058FEC11CCED10EE0B96912986D1CC0
:10132000884781461398761E44F4007405600F9830
:10133000401C002E0F9016DDB9F1300FEDD0B9F141
:10134000780F02D0B9F1580F0DD10F9801280AD1AA
:101350003B46CDE90054DDE91212001F029608F069
:101360002FFEC11CA7D1109989453ED144F08004BD
:1013700006E01399681CAAF1010A44F4007408609D
:10138000B9696D1C1298761E884730288146F0D0C6
:101390002BE01099894505D1200603D4761E44F030
:1013A000800418E0484603F0BEF808B3761E0DF13D
:1013B00023018B4544F4007408D2A9F130000BF8E6
:1013C000010B200607D5AAF1010003E0200602D494
:1013D0000AF101008246A00502D51399681C086035
:1013E000B96912986D1C88478146002ED1DC53E004
:1013F000002E51DDB9F1650F02D0B9F1450F4BD187
:10140000A00549D5B9696D1C1298761E24F4407464
:101410008847002E81460CDD2B2804D0B9F12D0F12
:1014200007D144F48074B96912986D1C8847761E00
:101430008146E00501D52D2100E02B2108F8011B94
:10144000CDF8008021E0761E0DF13901884544F485
:1014500000740CD2A9F1300010F0FF0088F80000F1
:1014600002D10099884509D908F1010806E0E00594
:1014700001D51E4801E042F20F708246B969129808
:101480006D1C8847814613980560002E04DD484690
:1014900003F049F80028D6D1F96912988847FF204F
:1014A00053468BF8000088F8000000200A900B904B
:1014B00004AA0CA90AA8FFF7ADFDA00502D46FF09D
:1014C0000100F8E614F0240F12D0E0071CD13868B0
:1014D000DDE90A12031D3B600068C0E9001213E059
:1014E0000CC40000FEC30000C2C20000F1D8FFFF20
:1014F0000AA9684603F004F8E00705D13868009AA5
:10150000011D3960006802602846D4E610B5044623
:10151000AFF300802046BDE81040FEF7C0BE0000DB
:101520004FF0013C50F8042B51F8043B9A4221D172
:10153000A2EB0C03934313EACC1317D150F8042BFE
:1015400051F8043B9A4215D1A2EB0C03934313EAE2
:10155000CC130BD150F8042B51F8043B9A4209D11B
:10156000A2EB0C03934313EACC13DBD04FF0000043
:10157000704700BFD01A01BAB1FA81F101F0180129
:1015800022FA01F0CB40C1F12001DBB2C0B2C01A97
:101590002CFA01F3D11A914311EAC311E6D1704735
:1015A0002DE9FF4F1F464FF03C0987B04FF0004236
:1015B000DDE9141001F10108DDF858A002EA4050FD
:1015C0000390002005908346054604460490B969BF
:1015D000461E08988847AAF1010A0290BAF1000F46
:1015E0003BDD02982E2815D0102100F016FA0028B5
:1015F0002EDB4FF0010B0599014317D0B9F1000F15
:101600000BDB4A46C11700F0F5F905430C43A9F17D
:10161000040905E0012004900BE008B145F0010544
:1016200001200590049820B9361D02E0049800B10D
:10163000361FB969089808F101088847BBF1000F07
:10164000AAF1010A0290C9D00999C1F80080C5E742
:101650000298702808D0502806D0F9690898884761
:10166000BBF1000F14D04FE0002002900120BBF12D
:10167000000F049009D0B969089808F1010888475B
:10168000AAF10109B9F1000F07DCF9690898884748
:101690006FF001000BB0BDE8F08F2B2804D02D288F
:1016A0000CD14FF0FF300490B969089808F1010897
:1016B0008847A9F10109B9F1000FE6DD411CE4D02A
:1016C0000A2100F0AAF90028DFDB029908F10108DD
:1016D00001EB810100EB41000290B969089888474D
:1016E0000A2100F09AF9099AA9F10109B9F1000F4C
:1016F000C2F8008001DD0028E7DAF9690898884718
:101700000499029800FB016655EA040004D004F035
:101710004041090002D006E0039898E0A40044EAA2
:101720009574AD00B61E04F00041080002D16D1999
:101730006441761E159810F0240F03D04FF00B096A
:101740005C4803E04FF028096FF07D008246564563
:1017500007DAAAEB06018944B9F1410F01DD4FF028
:10176000410901200021A9F1010200F043F90246DC
:1017700028400B462140084301D0012100E0002110
:10178000501E029143F1FF3128402140084301D00F
:10179000012000E000200299834651EA0B014FD05E
:1017A000002108464FF00000039900F4400039B1D1
:1017B00000EB80004FF4400100EBD07001EA6000C4
:1017C0008015012802DD4FF0FF3000E013D0401CEF
:1017D00036D0029860B3BBF1000F0CD14A4601200D
:1017E000002100F007F928402140084301D00120E2
:1017F00000E00020E0B101204A46002100F0FAF8A4
:10180000034640190A4661412D1A8C4111D3B9F1A2
:10181000400F09DD159810F0240F02D0AAF134060C
:1018200003E0AAF1170600E0761C00254FF0004403
:1018300006E05B1E42F1FF3220EA030521EA0204C2
:10184000CAF10100B04206DA1B490398084301902F
:10185000002000900EE0039AC4F3D321E80A0A4363
:10186000164940EA44500A433146CDE90002684631
:1018700002F04FFE159810F0240F0BD01598C007FA
:1018800015D13868DDE90012031D3B600068C0E92E
:1018900000120CE002A8694602F032FE1598C0075B
:1018A00005D13868029A011D39600068026040461F
:1018B000F0E6000002FCFFFF0000F07F0000F03FB8
:1018C0002DE9FF4F92461D4685B04FF00041DDE9FE
:1018D000124BDDE914727F1E01EA4B50414940F082
:1018E000FF4940EA0108002122F020004928049124
:1018F00002D04E2828D04CE03BA0012607C88DE836
:101900000700A9690698641C88477F1E014606D413
:101910001DF8060018B121F0200181420BD0E969C1
:1019200006988847032E34D0082E32D06FF001007D
:1019300009B0BDE8F08F761C032E01D0082EE0D14F
:10194000601CCAF80000DCE7A9690698641C884797
:101950007F1E2AD420F02000412826D1A9690698AC
:10196000641C88477F1E20D420F020004E281CD104
:10197000A9690698641C88477F1E48F4002849F42A
:101980008009CAF8004001D4282806D0E9690698E1
:1019900088475FEACB7012D022E0A9690698641CE0
:1019A00088477F1E01D4002803DAE9690698884732
:1019B000BCE72928F1D1641CCAF80040E9E71BF014
:1019C000240F07D028680499031D2B600068C0E924
:1019D000001805E02868021D2A600068C0F8009021
:1019E0002046A5E70000F07F494E46494E4954592C
:1019F00000000000B2F120030AD5C2F1200301FA71
:101A000002F120FA03F300FA02F041EA0301704701
:101A100000FA03F14FF0000070473A2800D2303846
:101A200020F02002412A01D3A2F13700884201D3DD
:101A30004FF0FF3070475FEA400C08BF91F0000F95
:101A40004FEA8C234FEAC12243EA51514FEA1C501E
:101A500018BF00F5F0404FEA300018BF41F00041D8
:101A60005FEA6C5C00F02980BCF1FF3F08BF40F0EA
:101A700080407047130C06BF12044FF0100C4FF05B
:101A8000000C130E04BF12020CF1080C130F04BF5C
:101A900012010CF1040C930F04BF92000CF1020C24
:101AA000D30F04BF52000CF1010C11464FF000029D
:101AB000A0F11F00A0EB0C00704711F0004F08BF11
:101AC000704731F000413FF4D5AF0B0C06BF09045D
:101AD0004FF0100C4FF0000C0B0E04BF09020CF17C
:101AE000080C0B0F04BF09010CF1040C8B0F04BF91
:101AF00089000CF1020CCB0F04BF49000CF1010C62
:101B0000CCF12003A0EB0C0022FA03F302FA0CF252
:101B100041EA030100F10100704720F07F4C80EAA8
:101B2000030023F07F47ACEB070303F57C5300F081
:101B3000004003F1FF032DE980494FEA154B09B43A
:101B40004FEA144325EA0B4E24EA03480FF2042619
:101B500006EB132749083E785FEA320203FB06676B
:101B6000C7F5000707FB06F64FEA54374FEAD6469B
:101B700006F1020607FB066CCCF1005C4FEA1C473D
:101B80002CEA074C07FB06F40CFB06F504EB1546A4
:101B90004FEA961634BF00204FF000404FEAD1378D
:101BA00006FB07FC4FEA1C4C0CFB0BF7D21B03FB9C
:101BB0000CF761EB07010CFB0EF7B0EB074072EB83
:101BC00017420CFB08F734BFA2EB0742B2EB074207
:101BD00061EB17414FEA0C444FEA910706FB07FC03
:101BE0004FEA1C4C0CFB0BF7B0EBC74072EB5732C3
:101BF00003FB0CF734BFA2EBC742B2EBC74261EB69
:101C000057310CFB0EF7B0EBC70072EB57720CFBB1
:101C100008F734BFA2EBC702B2EBC70261EB577102
:101C2000039F4FEA816141EA921104EBCC044FEA31
:101C3000D1374FEA826206FB07FC42EA90124FEA74
:101C400080604FEA1C4C0CFB0BF7D21B03FB0CF71C
:101C500061EB07010CFB0EF7B0EB074072EB17428C
:101C60000CFB08F734BFA2EB0742B2EB074261EB73
:101C700017414FEA8C554FEA910704EB9C2406FB71
:101C800007FC4FEA1C4C0CFB0BF7B0EBC74072EBA8
:101C9000573203FB0CF734BFA2EBC742B2EBC7428B
:101CA00061EB57310CFB0EF7B0EBC70072EB5772CC
:101CB0000CFB08F734BFA2EBC702B2EBC70261EB23
:101CC000577115EB4C254FEA816141EA92114FEAB9
:101CD00082624FEAD13742EA901206FB07FC44F1D8
:101CE00000044FEA80604FEA1C4C0CFB0BF7D21B40
:101CF00003FB0CF761EB07010CFB0EF7B0EB0740A1
:101D000072EB17420CFB08F734BFA2EB0742B2EBB1
:101D1000074261EB174115EB1C154FEA813141EA8F
:101D200092414FEA823242EA90424FEA80304FEAD3
:101D30000C7644F1000448EA03434EEA0B484FF0A6
:101D4000000EB2EB080C71EB030724BF6246394664
:101D50004EEB0E0E4FF0000B0018524149414BEB79
:101D60000B0BB2EB080C71EB03077BF1000B24BFEC
:101D7000624639464EEB0E0E4FF0000B00185241F2
:101D800049414BEB0B0BB2EB080C71EB03077BF1FA
:101D9000000B24BF624639464EEB0E0E51EA020795
:101DA00018BF46F0010616EB0E7655F1000254F10D
:101DB000000103D5BDE88901BDE80088BDE88901BF
:101DC000BDE80048B619524141EB0101A3F10103FE
:101DD000704780807F7E7D7C7B7A79787776767598
:101DE0007473727171706F6E6E6D6C6C6B6A6A6910
:101DF0006868676666656464636362616160605FAA
:101E00005F5E5E5D5D5C5C5B5B5A5A595958585722
:101E1000575656555555545453535252525151508A
:101E200050504F4F4F4E4E4D4D4D4C4C4C4B4B4BDD
:101E30004A4A4A4949494848484747474746464623
:101E4000454545444444444343434342424242415E
:101E50004141000046EA0646A3F570534FEA164694
:101E600046EA42564FEAD22242EA415210B54FEAC0
:101E7000D121A3F1010300F02FF820F0004000F180
:101E8000020C00F0004701EB00501146BCF5006F5A
:101E900040EA070000D210BDBAF1000F0AD01CB50D
:101EA00003B44FF004004FF004014FF000000FBCEA
:101EB000BDE810404FF00001BBF1010FB9BF04486D
:101EC0004FF0FF310348002140EA070010BD00BF7A
:101ED000FFFFEF7F0000F07F002B9C4630D477009F
:101EE0002BD01CB54FEA370703B44FF010004FF06A
:101EF0001001BAF1000F06D0BCF1000FDCBF40F0BA
:101F0000080040F008014FF000000FBCBDE8104091
:101F10000BF1010BBBF1010F08BF5FEA170722BFEE
:101F200012F1010211F101014FF0004143F10003F0
:101F300000F0004043EA00007047F9D35708D0E7AB
:101F400046EA064613F1400F4FEA16461FDD13F12D
:101F5000200FDFBF16430A46002120335B42BED06C
:101F6000C3F1200746EA064602FA07F74FEA16468B
:101F700046EA0706C3F1200722FA03F201FA07F73F
:101F800021FA03F14FF0000342EA0702A7E746EA0D
:101F9000020646EA06464FEA164646EA0106BCBF76
:101FA00046EA0646360C4FF000034FF000024FF0B1
:101FB000000194E72DE9804C9A46934670B491E86D
:101FC000380007C831EA400C48BF34EA430C03D557
:101FD000FFF7A3FDFFF780FFF0BCBDE8008C2DE903
:101FE000804C9A46934670B491E8380007C831EAAD
:101FF000400C48BF34EA430C03D5FFF78EFDFFF7D2
:1020000029FFF0BCBDE8008C2DE9804C9A46934630
:1020100070B491E8380007C810F0804F08BF13F083
:10202000804F03D100F01AF8FFF756FFF0BCBDE86F
:10203000008C2DE9804C9A46934670B491E83800A4
:1020400007C810F0804F08BF13F0804F03D100F095
:1020500005F8FFF7FFFEF0BCBDE8008C20F07F47DD
:1020600080EA030023F07F4C07EB0C03A3F57C53BD
:1020700000F00040A3F1FE0392F0000F00F0B380E7
:1020800095F0000F00F077802DE901494FEA1140EB
:102090004FEA144621EA004800FB06FC24EA064702
:1020A00008FB06F607FB08F800FB07F718EB0648E5
:1020B0004CEB164C4FEA124B18EB07484FEA15460B
:1020C0004CEB174022EA0B4E0BFB06FC25EA0647B9
:1020D0000EFB06F607FB0EFE0BFB07F71EEB064E8C
:1020E0004CEB164C4FF000061EEB074E4CEB174B1B
:1020F00018EB0B0840F1000018EB0E0B58EB000832
:1021000040F100008F1A4FF000013CBFC943661B2D
:1021100014BFB5EB040C00213CBFC943F61B4FEACA
:1021200017444EEA8E0E27EA04454FEA1C4704FB8B
:1021300007622CEA074C05FB07F70CFB05F604FBCE
:102140000CFC16EB074642EB174216EB0C4642EB33
:102150001C421BEB060658EB0202414146EA9E0672
:1021600001D5BDE80189B619524141EB0101A3F146
:102170000103BDE801894FEA14454FEA114724EAFB
:10218000054621EA074C05FB07F406FB07F70CFBA5
:1021900006F105FB0CFC11EB074144EB17444FEA39
:1021A000124711EB0C4144EB1C4422EA074C05FB9F
:1021B00007F206FB07F70CFB06F605FB0CFC16EB1B
:1021C000074642EB174216EB0C4642EB1C456A18D9
:1021D00054F1000148BF7047B619524141EB01016B
:1021E000A3F10103704795F0000F37D04FEA114279
:1021F0004FEA144721EA024624EA074C02FB07F1A2
:1022000006FB07F70CFB06F402FB0CFC14EB07447F
:1022100041EB17414FEA154714EB0C4441EB1C41CD
:1022200025EA074C02FB07F506FB07F70CFB06F651
:1022300002FB0CFC16EB074645EB174516EB0C466C
:1022400045EB1C42121951F1000148BF7047B61905
:10225000524141EB0101A3F1010370474FEA1445DC
:102260004FEA114724EA054621EA074C05FB07F12E
:1022700006FB07F70CFB06F24FF0000605FB0CFC13
:1022800012EB074241EB174112EB0C4251EB1C41A0
:1022900048BF7047921841EB0101A3F10103704759
:1022A00000BFFEE77047000070B504461D460023DE
:1022B000B5F5804F13D154F822300C480340D1E9D2
:1022C000000640EA06108E6840EA06208E8940EA41
:1022D00006408E693043034344F8223003E06FF038
:1022E000704044F82200002070BD00000000F0CFD4
:1022F00010B503460022086853F820201248024017
:10230000D1E901042043CC6820430C6920434C6987
:1023100020438C692043CC6920430C6A20434C6ADB
:1023200020438C6A2043CC6A2043CC6B20430C6B47
:10233000204302438868082801D142F0400208681F
:1023400043F82020002010BD8000F0FF30B5034688
:102350000024501C53F8204004F04044D1E900050B
:1023600040EA05108D6840EA05208D8940EA054560
:10237000088A401E45EA0055087D801E45EA006037
:102380008D6928430443501C43F82040002030BD91
:1023900070B50446A56D00F085F9064694F8350041
:1023A000022808D08020606500BF002084F8340037
:1023B00000BF012070BD2068006820F01600216871
:1023C00008602068406920F0800021684861206C26
:1023D00008B9A06C28B12068006820F008002168C6
:1023E00008602068006820F00100216808600FE0A4
:1023F00000F058F9801B05280AD92020606500BF2D
:10240000002084F8340000BF032084F83500D1E7B1
:102410002068006800F001000028E9D194F85C1001
:102420003F208840A86000BF002084F8340000BF2F
:10243000012084F835000020BCE7014691F8350002
:10244000022803D08020486501207047052081F8CC
:1024500035000868006820F001000A68106000205C
:10246000F3E70000F8B502460B46002500240020E3
:102470000021DEE0012606FA01F51E6806EA0504E1
:10248000AC4275D11E7906F00306012E04D01E79E8
:1024900006F00306022E13D190684F000326BE40BB
:1024A000B0434F00DE68BE40304390605068012664
:1024B0008E40B0431E79C6F300168E403043506004
:1024C0001E7906F00306032E09D0D0684F000326BC
:1024D000BE40B0434F009E68BE403043D0601E797E
:1024E00006F00306022E13D1CF0802F1200656F89B
:1024F00027004E07F70E0F26BE40B0434F07FF0ED2
:102500001E69BE403043CF0802F1200646F827007E
:1025100010684F000326BE40B0431E7906F0030644
:102520004F00BE40304310605E6806F08056B6F142
:10253000805F7DD100BF00260096404E366846F48D
:1025400080463E4F3E603E46366806F48046009622
:1025500000BF00BF3A4E8F0856F827008E07370F8E
:102560000F26BE40B043374EB24202D1002624E0CF
:102570005EE0354EB24201D101261EE0334EB2423A
:1025800001D1022619E0324EB24201D1032614E0F5
:10259000304EB24201D104260FE02F4EB24201D19B
:1025A00005260AE02D4EB24201D1062605E02C4E4A
:1025B000B24201D1072600E008268F073F0FBE4038
:1025C00030431F4E8F0846F82700264E3068A04340
:1025D0005E6806F48036B6F5803F00D12043214E78
:1025E0003060361D3068A0435E6806F40036B6F5EC
:1025F000003F00D120431B4E361D3060361D306831
:10260000A0435E6806F48016B6F5801F00D1204313
:10261000144E08363060361D3068A0435E6806F4FC
:102620000016B6F5001F00D120430E4E0C36306068
:10263000491C1029FFF41EAFF8BD000044380240C9
:102640000838014000000240000402400008024037
:10265000000C02400010024000140240001802402A
:10266000001C0240003C0140024613690B400BB1C4
:10267000012000E00020704710B5426921EA020302
:1026800002EA010443EA0443836110BD0AB1816197
:1026900001E00B048361704701480068000C70473B
:1026A000002004E00148006870470000200000207E
:1026B00003480068034909780844014908607047E5
:1026C000200000202800002010B50A48006840F4CF
:1026D0000070084908600846006840F4806008609F
:1026E000052000F07FF80F2000F006F800F02AF82F
:1026F000002010BD003C024070B504460E48007832
:102700004FF47A71B1FBF0F00C490968B1FBF0F5B8
:10271000284600F0F1FD08B1012070BD102C07D251
:1027200000222146501E00F01EF80548046001E01A
:102730000120F2E70020F0E7280000200C00002034
:1027400024000020704701460846002809DB00F0FD
:102750001F0301229A4043099B0003F1E023C3F8C1
:10276000002100BF70472DE9F05F80460D461646F8
:10277000002701F087FD074639462A46334601F017
:102780000700C0F1070ABAF1040F02D94FF0040A9A
:1027900001E0C0F1070AD14600F1040ABAF1070FBF
:1027A00002D24FF0000A01E0A0F1030AD4464FF034
:1027B000010A0AFA09FAAAF1010A0AEA020A0AFA5D
:1027C0000CFA4FF0010B0BFA0CFBABF1010B0BEA0F
:1027D000030B4AEA0B042146404601F05BFDBDE8CD
:1027E000F09F000000BF00F00702064B19684FF68B
:1027F000FF031940044B0B4343EA0221014B1960CC
:1028000000BF70470CED00E00000FA0570B504460B
:102810000D460CB9012070BD5848006800F0070053
:10282000A84209D255490D700846006800F007001B
:10283000A84201D00120EEE7207800F00200022833
:102840001DD1207800F00400042805D14C48006810
:1028500040F4E0504A490860207800F00800082859
:1028600005D14748006840F4604045490860444845
:10287000006820F0F000A168084341490860207812
:1028800000F00100A8B36068012807D13C4808386F
:102890000068C0F34040B8B90120BCE76068022876
:1028A00002D06068032807D1354808380068C0F3B3
:1028B000406048B90120AEE7314808380068C0F3ED
:1028C000400008B90120A6E72D48006820F0030069
:1028D000616808432A490860FFF7E4FE064609E0FC
:1028E000FFF7E0FE801B41F28831884202D90320C5
:1028F00091E707E02248006800F00C006168B0EB47
:10290000810FEDD11D48006800F00700A84209D9E9
:102910001A490D700846006800F00700A84201D06F
:10292000012078E7207800F00400042807D114483B
:10293000006820F4E050E1680843114908602078FD
:1029400000F00800082808D10D48006820F4604015
:10295000216940EAC1000A49086000F03FF80849CF
:102960000968C1F30311074A515CC8400649086071
:1029700006480068FFF7C0FE00204CE7003C02401C
:1029800008380240F89F00080C00002024000020B6
:1029900001480068704700000C00002000B5FFF7F8
:1029A000F7FF04490968C1F38221034A515CC8401A
:1029B00000BD00000838024008A0000800B5FFF77D
:1029C000E7FF04490968C1F34231034A515CC8403A
:1029D00000BD00000838024008A000082DE9F047BB
:1029E000002400250026A1462548006800F00C00C0
:1029F00020B1042805D008283AD105E0DFF88490FA
:102A000039E0DFF8849036E01D48001F006800F0D0
:102A10003F041B48001F006800F4800078B11A488A
:102A20001749091F0968C1F38811A0FB017001460D
:102A3000224600233846FDF760FC05460EE01148AB
:102A40000F49091F0968C1F38811A0FB01700146F5
:102A5000224600233846FDF750FC05460848001F73
:102A60000068C0F30140401C4600B5FBF6F902E0E7
:102A7000DFF8109000BF00BF4846BDE8F0870000B7
:102A8000083802400024F40000127A00F8B5044629
:102A90000CB90120F8BD207800F00100002874D0A6
:102AA000F948006800F00C0004280DD0F6480068D2
:102AB00000F00C00082813D1F348001F006800F450
:102AC0008000B0F5800F0BD1EF4808380068C0F3E4
:102AD0004040002859D06068002856D10120D9E72D
:102AE00000BF6068B0F5803F08D1E748083800684B
:102AF00040F48030E449083908601EE06068B0F5B1
:102B0000A02F0DD1E0480838006840F48020DE494D
:102B1000083908600846006840F4803008600CE01E
:102B2000D9480838006820F48030D749083908604F
:102B30000846006820F48020086000BF606890B1FB
:102B4000FFF7B0FD054606E0FFF7ACFD401B64282B
:102B500001D903209EE7CC4808380068C0F3404004
:102B60000028F1D011E0FFF79DFD054606E0FFF7D4
:102B700099FD401B642801D903208BE7C24808381F
:102B80000068C0F340400028F1D1207800F0020036
:102B900002285FD1BC48006800F00C0058B1BA4868
:102BA000006800F00C0008281CD1B748001F00681E
:102BB00000F48000B0B9B44808380068C0F34000A1
:102BC00020B1E068012801D0012063E7AE48083851
:102BD000006820F0F800216940EAC100AA490839DC
:102BE000086037E0E06800B30120A8490860FFF7FB
:102BF00059FD054606E0FFF755FD401B022801D9A7
:102C0000032047E7A04808380068C0F340000028C8
:102C1000F1D09D480838006820F0F800216940EAAA
:102C2000C10099490839086014E0002097490860FC
:102C3000FFF738FD054606E0FFF734FD401B02288C
:102C400001D9032026E7904808380068C0F3400007
:102C50000028F1D1207800F0080008282CD1606904
:102C6000A8B101208A490860FFF71CFD054606E06F
:102C7000FFF718FD401B022801D903200AE782480C
:102C80006C300068C0F340000028F1D014E0002050
:102C90007F490860FFF706FD054606E0FFF702FDE5
:102CA000401B022801D90320F4E677486C30006805
:102CB000C0F340000028F1D1207800F0040004287F
:102CC00070D1002770483830006800F0805090B90B
:102CD00000BF002000906C483830006840F0805001
:102CE0006949383108600846006800F0805000905B
:102CF00000BF00BF01276748006800F48070B0B9CA
:102D00006448006840F4807062490860FFF7CAFCBC
:102D1000054606E0FFF7C6FC401B022801D9032048
:102D2000B8E65C48006800F480700028F2D000BF6C
:102D3000A068012808D154486830006840F00100BC
:102D40005149683108601DE0A06805280DD14E4842
:102D50006830006840F004004B496831086008465C
:102D6000006840F0010008600CE0474868300068E7
:102D700020F001004449683108600846006820F0EE
:102D80000400086000BFA068A8B1FFF78BFC0546EF
:102D900009E0FFF787FC401B41F28831884202D9E5
:102DA000032077E626E0384868300068C0F340002A
:102DB0000028EED013E0FFF775FC054608E0FFF7AA
:102DC00071FC401B41F28831884201D9032061E641
:102DD0002D4868300068C0F340000028EFD1012F73
:102DE00007D129483830006820F080502649383112
:102DF000086000BFA069002845D02348006800F0A3
:102E00000C0008285DD0A069022845D100201F4988
:102E10000866FFF747FC054606E0FFF743FC401B4A
:102E2000022801D9032035E6174808380068C0F3A6
:102E300040600028F1D1D4E907010843616A40EA03
:102E400081110122A06AC2EB500041EA00412C200E
:102E5000005D41EA00600C49091F086001200B4930
:102E60000866FFF71FFC054606E0FFF71BFC401B4A
:102E7000022801D903200DE6034808380068C0F392
:102E800040600028F1D049E0083802400000474285
:102E9000800E474200700040002021490866FFF77D
:102EA00001FC054606E0FFF7FDFB401B022801D9A7
:102EB0000320EFE51B480068C0F340600028F2D112
:102EC0002CE0A069012800D1E4E51648001D066841
:102ED000A069012820D006F48001E06981421BD15D
:102EE00006F03F01206A814216D147F6C07030409B
:102EF000616AB0EB811F0FD106F440310122A06A54
:102F0000C2EB5000B1EB004F06D106F070612C20EF
:102F1000005DB1EB006F01D00120BBE50020B9E5F9
:102F200000004742003802402DE9F04F85B00446CA
:102F3000884691461D460E9E002004900120029076
:102F40000020019000BF94F85000012803D1022016
:102F500005B0BDE8F08F012084F8500000BFFFF7F6
:102F6000A1FB074694F851B060680390AA46BBF1F4
:102F7000010F0BD00398B0F5827F04D1A06810B97F
:102F8000BBF1040F02D0022001902CE1B8F1000F38
:102F900003D0B9F1000F00D015B90120019022E152
:102FA00094F85100042802D0052084F85100002034
:102FB0006065C4F83890E587A587C4F83080E58659
:102FC000A58620646064A06AB0F5005F0DD100BFE3
:102FD0002068006820F400502168086020680068BC
:102FE00040F400502168086000BF2068006800F0CD
:102FF0004000402805D02068006840F0400021686B
:103000000860E068B0F5006F56D1606810B1BAF1A1
:10301000010F09D1206B00882168C860206B801CDB
:103020002063E08E401EE0863FE02068806800F06C
:10303000020002281CD1E08ED0B10298012817D1DD
:10304000206B00882168C860206B801C2063E08EA4
:10305000401EE08600200290E08E48B9A06AB0F5DC
:10306000005F05D12068006840F480502168086046
:103070002068806800F0010068B1E08F58B12068D6
:10308000C068A16B0880A06B801CA063E08F401E0D
:10309000E08701200290FFF705FBC01BB04204D37C
:1030A000701C10B1032001909DE0E08E0028BCD17F
:1030B000E08F0028B9D156E0606810B1BAF1010F75
:1030C00009D1206B007821680873206B401C2063B5
:1030D000E08E401EE08640E02068806800F002003C
:1030E00002281CD1E08ED0B10298012817D1206BA4
:1030F000007821680873206B401C2063E08E401E1E
:10310000E08600200290E08E48B9A06AB0F5005F2A
:1031100005D12068006840F480502168086020686C
:10312000806800F0010068B1E08F58B12068C06885
:10313000A16B0870A06B401CA063E08F401EE0876D
:1031400001200290FFF7AEFAC01BB04201D3701C01
:1031500000B916B90320019045E0E08E0028BBD1EC
:10316000E08F0028B8D1A06AB0F5005F12D13346D5
:10317000012211462046009700F0D0FC30B1606D6E
:1031800040F002006065032001902CE02068C068D8
:10319000049000BF2068806800F01000102809D15A
:1031A000606D40F0020060654FF6EF702168886046
:1031B000012001903A463146204600F079FC20B1CA
:1031C00001200190202060650DE0A06850B900BF8B
:1031D000002000902068C0680090206880680090FF
:1031E00000BF00BF00BF012084F8510000BF0020D5
:1031F00084F8500000BF0198AAE670B504460E4658
:1032000015460CB9012070BD94F8490028B900207A
:1032100084F84800204600F01DF804F108012068F9
:10322000FFF766F83146A2682068FFF78FF8294655
:10323000236BD4E90102FFF737F8A168206850F842
:10324000210040F00100A268216841F8220000201E
:10325000D9E7000010B586B0044600BF00200090FA
:103260002248006840F001002049086008460068D4
:1032700000F00100009000BF00BF00BF00200090E0
:103280001A480838006840F00800184908390860F2
:103290000846006800F00800009000BF00BF00BFB3
:1032A000002000900846006840F0100008600846C2
:1032B000006800F01000009000BF00BF4CF20370E7
:1032C00001900220029001200390022004900C2023
:1032D000059001A90648FFF7C5F84FF680700190E8
:1032E00001A90448FFF7BEF806B010BD3838024007
:1032F000000C02400010024070B504462546681ECE
:10330000B0F1807F01D301200FE0681E4FF0E02173
:1033100048610F214FF0FF3000F0BCFF00204FF05C
:10332000E021886107200861002070BD10B50446C7
:103330000CB9012010BD94F83D0028B9002084F894
:103340003C00204600F025F8022084F83D00211DB5
:10335000206800F081FC012084F8460000BF84F85A
:103360003E0001213F2001554020015541200155DB
:1033700000BF00BF012084F84200432001554420D3
:1033800001554520015500BF012084F83D00002073
:10339000D0E77047014691F83D00012801D0012097
:1033A0007047022081F83D000868C06840F00100C5
:1033B0000B68D8601A4B086898421BD00868B0F1B7
:1033C000804F17D0174B0868984213D0164B0868E7
:1033D00098420FD0154B086898420BD0144B0868E0
:1033E000984207D0134B0868984203D0124B0868E4
:1033F00098420CD10868806800F00702062A0CD0B9
:103400000868006840F001000B68186005E0086873
:10341000006840F001000B6818600020C0E7000061
:10342000000001400004004000080040000C004083
:103430000004014000400140001800407047704700
:103440002DE9F84F0446206805682068C6682068A2
:1034500047694FF00009CA4605F00F09B9F1000F9E
:103460000AD105F0200038B106F0200020B1204636
:1034700000F01DFDBDE8F88FB9F1000F72D007F024
:10348000010018B906F4907000286BD005F0010017
:1034900030B106F4807018B1206C40F00100206457
:1034A00005F0040030B107F0010018B1206C40F0C5
:1034B0000200206405F0020030B107F0010018B1ED
:1034C000206C40F00400206405F0080048B106F0CC
:1034D000200010B907F0010018B1206C40F008007E
:1034E0002064206C70B305F0200028B106F02000A5
:1034F00010B1204600F0DBFC20684069C0F3801A60
:10350000206C00F0080010B9BAF1000F23D020465B
:1035100000F0A2FC2068406900F04000402816D16D
:103520002068406920F0400021684861A06B50B1DC
:103530005648A16B0865A06BFEF77FFF10B1A06B2A
:10354000016D88470CE02046FFF779FF08E0204630
:10355000FFF775FF04E02046FFF771FF00202064AD
:1035600088E7FFE7206B012879D105F010000028DB
:1035700075D006F01000002871D000BF0020009028
:1035800020680068009020684068009000BF00BF7D
:103590002068406900F04000402839D1A06B0068E5
:1035A00040681FFA80F8B8F1000F30D0A08D404578
:1035B0002DDDA4F82E80A06BC069B0F5807F1FD0F0
:1035C0002068C06820F480702168C8602068406965
:1035D00020F00100216848612068406920F0400027
:1035E00021684861202084F83E0000202063206884
:1035F000C06820F010002168C860A06BFEF7C8FE0C
:10360000A08DE28D801A81B22046FFF717FF31E7C7
:10361000A08DE18D401A1FFA80F8E08DE8B1B8F175
:10362000000F1AD02068C06820F490702168C8602C
:103630002068406920F0010021684861202084F85A
:103640003E00002020632068C06820F01000216840
:10365000C86041462046FFF7F1FE0BE7FFE705F0A3
:10366000800030B106F0800018B1204600F0B7FDB0
:1036700000E705F0400030B106F0400018B12046E8
:1036800000F005FCF6E600BFF4E60000453E000849
:1036900010B504460CB9012010BDA06900B100E0CE
:1036A00000BF94F83D0028B9002084F83C00204673
:1036B00000F028F8242084F83D002068C06820F439
:1036C00000502168C860204600F050FC2068006966
:1036D00020F49040216808612068406920F02A00A9
:1036E000216848612068C06840F400502168C860C3
:1036F00000202064202084F83D0084F83E00002053
:10370000CAE7000010B586B004462E4920688842FA
:1037100055D100BF00BF002000902B48006840F04A
:103720001000294908600846006800F01000009069
:1037300000BF00BF00BF00BF00BF002000902248B4
:103740001438006840F001001F4914390860084629
:10375000006800F00100009000BF00BF00BF00BF84
:1037600000BF002000900846006840F0010008609B
:103770000846006800F00100009000BF00BF00BFD5
:10378000481501900220029001200390022004902D
:103790000720059001A90D48FEF764FE4FF48060F4
:1037A00001900720059001A90848FEF75BFE25203F
:1037B000FEF7C9FF032211462520FEF7D4FF06B00D
:1037C00010BD0000001001404438024000000240DB
:1037D00070B504460D46164694F83E00202816D1D2
:1037E00005B10EB9012070BD00BF94F83C0001285E
:1037F00001D10220F7E7012084F83C0000BF00203F
:10380000206332462946204600F0C6FCEBE7022042
:10381000E9E7000010B504462049206888423BD102
:103820001F48008800F4004088BB1D48008800F451
:10383000804070B11B4800780A2803D00020184946
:10384000088024E01648008840F4004014490880AD
:103850001DE0144800780D2806D11148008840F476
:1038600080400F49088012E00E4800780C49098812
:10387000C1F30D010C4A505409480088401C084906
:10388000088008460088C72801DD00200880012242
:1038900004490648FFF79CFF10BD000000100140DE
:1038A0001C0000201E000020D8010020A0020020E3
:1038B0007047000000B587B0142102A8FCF71CFF78
:1038C00000BF002001901248006840F0020010493B
:1038D00008600846006800F00200019000BF00BFC9
:1038E000C020029011200390012004900220059036
:1038F00002A90848FEF7B6FD012240210548FEF75F
:10390000C5FE012280210348FEF7C0FE07B000BDBE
:10391000303802400004024070B5002400F028FA5C
:10392000422000F065FA00F003FA012280211348DA
:10393000FEF7ACFE002519E0002240210F48FEF7FB
:10394000A5FE64100A2000F00DFA012240210B4868
:10395000FEF79CFE80210948FEF786FE08B144F080
:103960008004142000F0FEF9681CC5B2082DE3DBCA
:1039700000F0DEF900F01AFA204670BD00040240A3
:103980002DE9F05F2DED028BB0EE408A9FED410AEC
:10399000B4EEC08AF1EE10FA03D29FED3E0AB0EE0B
:1039A000408A9FED3D0AB4EEC08AF1EE10FA03DDC5
:1039B0009FED390AB0EE408AB2EE040A28EE000A02
:1039C000BDEEC00A10EE104A002C00DA64426420FA
:1039D00094FBF0F000F0FF090A2094FBF0F00A21BC
:1039E00090FBF1F201FB120000F0FF0A0A2094FBA9
:1039F000F0F100FB114000F0FF0B28480778284841
:103A000010F80950FC2D02D1642C00DA002524485E
:103A100010F80A0040F00108214810F80B60B5EEDC
:103A2000C08AF1EE10FA01D246F0010600F0A0F9CA
:103A3000402000F0DDF900F07BF900F0B7F900F06C
:103A400097F9C02000F0D4F900F072F9384600F080
:103A5000CFF900F06DF9284600F0CAF900F068F9D6
:103A6000404600F0C5F900F063F9304600F0C0F9B7
:103A700000F05EF900F09AF900F07AF98C2000F07D
:103A8000B7F900F055F900F091F9BDEC028BBDE8F3
:103A9000F09F0000CDCCC7C2CDCCC74210000020A3
:103AA00010A0000800BFFEE700BFFEE770477047A8
:103AB0007CB504460D461646164800681821B0FB32
:103AC000F1F01549B0FBF1F04FF47A7148430190E1
:103AD0006068B0F5827F0DD12B4600228021204600
:103AE000009600F01BF898B1606D40F02000606512
:103AF00003207CBD00BF019800B908E00198401E7A
:103B0000019020688068C0F3C0100028F3D100BF86
:103B10000020EEE70C00002040420F002DE9F84F96
:103B200004460D4690461E46DDF82890FEF7BAFD85
:103B3000A0EB0900371AFEF7B5FD82462C48006855
:103B4000C0F3CB307843009045E0701C002842D091
:103B5000FEF7A8FDA0EB0A00B84200D2A7BB206880
:103B6000406820F0E000216848606068B0F5827F1E
:103B70000DD1A068B0F5004F03D0A068B0F5806FFC
:103B800005D12068006820F0400021680860A06A24
:103B9000B0F5005F0DD100BF2068006820F4005030
:103BA000216808602068006840F4005021680860BF
:103BB00000BF012084F8510000BF002084F85000AD
:103BC00000BF0320BDE8F88FFFE7009800B9002789
:103BD0000098401E0090206880682840A84201D1CB
:103BE000012000E000204045AFD10020EAE70000BE
:103BF0000C000020704710B5FEF75AFD10BD000004
:103C00000348006840F470000149086070470000F4
:103C100088ED00E010B50E480068C06800F00100B3
:103C200078B10C4908698047002009490968486251
:103C300000BF642006490968C86264210448C16065
:103C400000BF6FF0010002490968086110BD000063
:103C50009C030020E400002010B50268294B984224
:103C60000ED0B0F1804F0BD0274B984208D0274B95
:103C7000984205D0264B984202D0264B984203D159
:103C800022F070024B681A431E4B984220D0B0F1CC
:103C9000804F1DD01C4B98421AD01C4B984217D015
:103CA0001B4B984214D01B4B984211D01A4B984290
:103CB0000ED01A4B98420BD0194B984208D0194B92
:103CC000984205D0184B984202D0184B984203D125
:103CD00022F44072CB681A4322F080034C6943EA15
:103CE000040202608B68C3620B688362054B9842D2
:103CF00002D0084B984201D10B6903630123436151
:103D000010BD000000000140000400400008004019
:103D1000000C00400004014000400140004401400C
:103D20000048014000180040001C004000200040F6
:103D300010B5002240210A48FEF7A8FC052000F03B
:103D400011F8012240210648FEF7A0FC022000F0F5
:103D500009F8002240210248FEF798FC10BD00003F
:103D60000004024010B50446204600F0F5FB10BDEB
:103D700010B5012240210C48FEF788FC0122802169
:103D80000948FEF783FC0220FFF7ECFF00228021A8
:103D90000548FEF77BFC0220FFF7E4FF00224021EC
:103DA0000148FEF773FC10BD0004024010B500226C
:103DB00040210E48FEF76AFC0220FFF7D3FF0022E5
:103DC00080210A48FEF762FC0220FFF7CBFF0122A8
:103DD00040210648FEF75AFC0220FFF7C3FF0122EC
:103DE00080210248FEF752FC10BD00000004024092
:103DF00070B50446002520E0002240211048FEF75F
:103E000045FC04F0010028B1012280210C48FEF796
:103E10003DFC04E0002280210948FEF737FC032026
:103E2000FFF7A0FF6410012240210548FEF72EFC99
:103E30000320FFF797FF681CC5B2082DDCDB70BDBF
:103E40000004024070B50546AC6B0020E085E084BC
:103E50002046FFF7F4FA70BD0168C96821F490713B
:103E60000268D1600168496921F00101026851616D
:103E7000016B012905D10168C96821F010010268B0
:103E8000D160202180F83E1000210163704710B5F9
:103E900004462068C06820F040002168C8602020E7
:103EA00084F83D002046FFF703FD002010BD70B5EB
:103EB000044694F83E00222856D1A068B0F5805FF1
:103EC0000CD1206950B90025A66A20684068C0F36B
:103ED00008003080A06A801CA06215E0A56A002658
:103EE000A068B0F5805F03D0A06828B9206918B930
:103EF00020684068287004E02068406800F07F0077
:103F00002870A06A401CA062E08D401E80B2E0854F
:103F100040BB2068C06820F020002168C86020688D
:103F2000C06820F480702168C8602068406920F073
:103F3000010021684861202084F83E00206B0128A0
:103F40000AD12068C06820F010002168C860A18DE7
:103F50002046FFF773FA02E02046FFF75BFC0020E3
:103F6000206370BD0020FCE70220FAE72DE9F84F3E
:103F700004462068006920F44050E1680843216845
:103F800008612169A068084361690843E169084341
:103F900000902068C06849F20C618843009908438A
:103FA0002168C8602068406920F44070A169084316
:103FB0002168486176492068884203D075492068A5
:103FC000884203D1FEF7FAFC814602E0FEF7E6FCE8
:103FD0008146E069B0F5004F6CD102206168A0FB1A
:103FE000015003461920A9FB007001462A463846B5
:103FF000FCF783F96421B0FBF1F04FEA001A0220CC
:104000006168A0FB01510B461920A9FB00712A46EB
:104010003846FCF772F9834602206168A0FB015024
:1040200003461920A9FB00712A463846FCF765F9BA
:104030006421B0FBF1F000EBC00101EB0010ABEB31
:104040008000322101EBC0006421B0FBF1F000F0F0
:10405000F8000AEB400A02206168A0FB0150034609
:104060001920A9FB007001462A463846FCF745F99D
:10407000834602206168A0FB015003461920A9FB7A
:1040800000712A463846FCF738F96421B0FBF1F09C
:1040900000EBC00101EB0010ABEB8000322101EB23
:1040A000C0006421B0FBF1F000F00700504421682B
:1040B00088606AE004206168A0FB01500346192073
:1040C000A9FB007001462A463846FCF716F98246DD
:1040D00004206168A0FB015003461920A9FB007071
:1040E00001462A463846FCF708F96421B0FBF1F096
:1040F00000EBC00101EB0010AAEB8000322101EBC4
:1041000000106421B0FBF1F000F0F00A04206168B7
:10411000A0FB017003461920A9FB00513A4628462E
:10412000FCF7EBF86421B0FBF1F00AEB001A042075
:104130006168A0FB01510B461920A9FB00712A46BA
:104140003846FCF7DAF8834604206168A0FB01508A
:1041500003461920A9FB007001462A463846FCF7A1
:10416000CCF86421B0FBF1F000EBC00101EB0010D2
:10417000ABEB8000322101EB00106421B0FBF1F0C9
:1041800000F00F00504421688860BDE8F88F0000FF
:10419000001001400014014010B5034699629A8551
:1041A000DA8500201864222083F83E0000BF00203A
:1041B00083F83C0000BF1868C06840F480701C6839
:1041C000E0601868406940F001001C686061186890
:1041D000C06840F020001C68E060002010BD01466F
:1041E00091F83D00212828D18868B0F5805F0BD177
:1041F000086948B90A6A1088C0F308000B6858605B
:10420000086A801C086205E00B6A581C086218786E
:104210000B685860C88C401E80B2C88458B90868C2
:10422000C06820F080000B68D8600868C06840F063
:1042300040000B68D860002070470220FCE70000B7
:1042400010B50248FFF7FCF810BD0000A0020020E6
:1042500000BFFEE703B401984100009850EAC12076
:1042600018BF04204A0D18BF40F0010040F2FF7251
:10427000B2EB515F08BF40F00200012808BF0520E3
:1042800002B0704702480068C0F302207047000087
:104290000CED00E010B5002804DB0A07130E054AF8
:1042A000135406E00A07140E034A00F00F031B1F05
:1042B000D45410BD00E400E018ED00E00000000060
:1042C00030B52DED048B81B0B0EE408AF0EE608AFF
:1042D0006A4651EC180B00F073F900989FED329B81
:1042E0007E300090002821DC53EC192B51EC180B88
:1042F00005F098FB1AD0002140F608004FF00000AE
:10430000044651EC180B05F047FB08EE100A40F686
:10431000080004EA00014FF00000B5EEC08AF1EE9B
:1043200010FA04BF0220FCF717FA2DE00098FF28CE
:1043300030DB002108464FF0000000F4400553EC4C
:10434000192B51EC180B05F023FD8CBF0024012420
:104350000220FCF701FA9FED168A4DB1002C0CBF2C
:104360004FF400004FF48000A84218BF9FED118A5F
:10437000042108464FF00000002C01BFB1EE480AAE
:1043800001B0BDEC048B30BDB0EE480A01B0BDEC0D
:10439000048B30BD51EC180B05F0FEFA01B000EEB5
:1043A000100ABDEC048B30BD0000000000000000CE
:1043B0000000807FFFFF7F7F30B583B00446FCF7AD
:1043C000C6F99FED090B05468DED000B0022214635
:1043D0006846FCF775FC2846FCF7BEF99DED000B1E
:1043E00003B030BD0000000000000000000000002D
:1043F00030B540F2FF742DED048BF0EE608A18EEBC
:10440000901A85B0B0EE408A9FED2B9B05468DED4E
:10441000008B34EA115147D053EC192B51EC180B97
:1044200005F000FB40D02A4651EC180B05F098FD32
:1044300041EC180B18EE900A8DED008B34EA105009
:104440001CD053EC192B51EC180B05F0EBFA2BD1C7
:104450000220FCF781F900F043F810EE901A18EEF4
:10446000900A8DED020B8DED008B61F31E00039021
:104470009DED020B05B0BDEC048B30BD0220FCF7B6
:104480006BF900F01DF810EE901A18EE900A8DED01
:10449000020B8DED008B61F31E0003909DED020B6E
:1044A00005B0BDEC048B30BD05B0B0EE480AF0EEAF
:1044B000680ABDEC048B30BD000000000000000065
:1044C0009FED050B10B553EC102B51EC100B05F0C4
:1044D00061FB41EC100B10BD0000000000000070FB
:1044E0009FED050B10B553EC102B51EC100B05F0A4
:1044F00051FB41EC100B10BD00000000000000104B
:1045000010B5044691ED000BFFF7DAFE84ED000ACA
:1045100010BD10B5044690ED000B0846FFF768FF8C
:1045200084ED000B10BD30380A2801D201207047FD
:104530000020704700BF70470149086070470000C5
:104540001400002010B504464FF47A7104FB01F00A
:1045500000F002F810BD000070B5034600224FF0D5
:10456000E02675690D4E366803FB06F44FF0E02631
:10457000B16910E04FF0E026B06988420BD0884264
:1045800002D20E1A324402E02E1A0E443244014680
:10459000A24200D300E0EDE700BF70BD1400002090
:1045A00000BF054A126802F04002002AF9D0C2B2E8
:1045B000014B5A60704700000010014000000000ED
:1045C00010B582B01446CDE900010023009A2360A3
:1045D000194B21F0004098422ADA024328D0B0F566
:1045E000801FA8BF226810DA9FED150B53EC102B2B
:1045F0009DED000B51EC100B05F0CCFACDE900015C
:104600006FF0350221F0004022600F4B6FF31E5116
:1046100003EB20501044206041F0FF5040F0005068
:1046200001909DED000B00BF02B051EC100B10BDCE
:104630009DED000BF8E700000000F07F0000000097
:10464000000000000000504302FCFFFF70B504466C
:10465000002609480588408845430021084603F0A4
:1046600041FA03F09BFC00BF02E004480480761C82
:10467000AE42FAD370BD0000340300208000006C0D
:1046800010B5044658488471002C58D1F020564982
:1046900008804FF4A07048800846808845F2105189
:1046A000884210D14FF430504F4908814FF42850C0
:1046B00048814FF42C5088814FF4F07008804FF4FB
:1046C000487048801AE04848808841F66311884263
:1046D0000DD12C20444908812B2048812A20888133
:1046E0004FF4F07008804FF44870488006E02C20AA
:1046F0003D4908812A2048812B2088813A488088BA
:1047000045F21031884205D03748808847F29671CB
:10471000884206D14FF4A070334908804FF4F070FE
:1047200048803148808849F60601884258D14FF4C4
:10473000F0702D4908804FF44870488050E04FF4E5
:10474000A07029490880F02048800846808845F2FA
:104750001051884210D14FF43050234908814FF452
:10476000285048814FF42C5088814FF448700880BD
:104770004FF4F070488020E01B48808841F66311B8
:10478000884205D01848808849F6060188420DD134
:104790002C20154908812A2048812B2088814FF43C
:1047A000487008804FF4F070488006E02C200E49D5
:1047B00008812A2048812B2088810B48808845F277
:1047C0001031884205D00848808847F296718842A7
:1047D00006D14FF4F070044908804FF4A07048806F
:1047E000002003F061F810BD340300202DE9F047EC
:1047F00006460F4690469A46002445460320A0EB05
:10480000480944E07A1B91B2321990B2524600F046
:1048100099F83A1B91B2721990B2524600F092F890
:104820003A1991B2721990B2524600F08BF87A1987
:1048300091B2321990B2524600F084F87A1991B2CE
:10484000321B90B2524600F07DF83A1991B2721BB9
:1048500090B2524600F076F87A1B91B2321B90B2B9
:10486000524600F06FF83A1B91B2721B90B252465A
:1048700000F068F8641CB9F1000F03DAA000801D95
:10488000814404E0601B80000A3081446D1EAC420C
:10489000B8DDBDE8F0872DE9FF4F84B081468A4638
:1048A0000020029083460698A0EB09050798A0EB2C
:1048B0000A06CDF80490CDF800A0002D01DD0127F7
:1048C00005E00DB9002702E04FF0FF376D42002EE2
:1048D00002DD4FF0010806E016B94FF0000802E0D3
:1048E0004FF0FF387642B54201DD2C4600E03446F9
:1048F000002003901EE0009A91B2019A90B2119AA2
:1049000000F020F8029828440290B3440298A04294
:1049100005DD0298001B0290019838440190A345E0
:1049200004DDABEB040B0098404400900398401C5E
:1049300080B20390611C03988842DCDD08B0BDE8BA
:10494000F08F000070B505460E46144631462846E5
:1049500003F0C8F803F022FB01490C8070BD000091
:104960008000006C2DE9F84105460E461746984632
:10497000079C33463A46314628460094FFF78BFFA2
:1049800043462A46314628460094FFF784FF4346B3
:104990003A46414628460094FFF77DFF43463A4693
:1049A000314638460094FFF776FFBDE8F88110B530
:1049B000CF2003F0E7FA002003F0D8FAC12003F07B
:1049C000D5FA302003F0D2FAED2003F0DBFA6420B0
:1049D00003F0CCFA032003F0C9FA122003F0C6FA60
:1049E000812003F0C3FAE82003F0CCFA852003F01D
:1049F000BDFA102003F0BAFA7A2003F0B7FACB2000
:104A000003F0C0FA392003F0B1FA2C2003F0AEFA1B
:104A1000002003F0ABFA342003F0A8FA022003F0E0
:104A2000A5FAF72003F0AEFA202003F09FFAEA205F
:104A300003F0A8FA002003F099FA002003F096FA98
:104A4000C02003F09FFA1B2003F090FAC12003F06E
:104A500099FA012003F08AFAC52003F093FA302076
:104A600003F084FA302003F081FAC72003F08AFAB9
:104A7000B72003F07BFA362003F084FA482003F0D5
:104A800075FA3A2003F07EFA552003F06FFAB12050
:104A900003F078FA002003F069FA1A2003F066FAAE
:104AA000B62003F06FFA0A2003F060FAA22003F0A8
:104AB0005DFAF22003F066FA002003F057FA262090
:104AC00003F060FA012003F051FAE02003F05AFAF3
:104AD0000F2003F04BFA2A2003F048FA282003F0B5
:104AE00045FA082003F042FA0E2003F03FFA0820AE
:104AF00003F03CFA542003F039FAA92003F036FA07
:104B0000432003F033FA0A2003F030FA0F2003F0B9
:104B10002DFA002003F02AFA002003F027FA0020E3
:104B200003F024FA002003F021FAE12003F02AFA2E
:104B3000002003F01BFA152003F018FA172003F0E9
:104B400015FA072003F012FA112003F00FFA0620DD
:104B500003F00CFA2B2003F009FA562003F006FAB2
:104B60003C2003F003FA052003F000FA102003F0C4
:104B7000FDF90F2003F0FAF93F2003F0F7F93F2089
:104B800003F0F4F90F2003F0F1F92B2003F0FAF908
:104B9000002003F0EBF9002003F0E8F9012003F016
:104BA000E5F93F2003F0E2F92A2003F0EBF90020B9
:104BB00003F0DCF9002003F0D9F9002003F0D6F966
:104BC000EF2003F0D3F9112003F0DCF97820FFF790
:104BD000B9FC292003F0D6F910BD10B5FF2003F071
:104BE000D1F9FF2003F0C2F9982003F0BFF90620A5
:104BF00003F0BCF9BC2003F0C5F9012003F0B6F9BD
:104C00000F2003F0B3F9612003F0B0F9FF2003F0A7
:104C1000ADF9012003F0AAF9012003F0A7F90B2058
:104C200003F0A4F9102003F0A1F9372003F09EF956
:104C3000632003F09BF9FF2003F098F9FF2003F0B5
:104C400095F9012003F092F9012003F08FF900207B
:104C500003F08CF9002003F089F9FF2003F086F9B6
:104C6000522003F083F9012003F080F9002003F0C3
:104C70007DF9402003F07AF9BD2003F083F901208B
:104C800003F074F9232003F071F9452003F06EF965
:104C9000672003F06BF9012003F068F9232003F08B
:104CA00065F9452003F062F9672003F05FF9BE2043
:104CB00003F068F9002003F059F9012003F056F9D8
:104CC000AB2003F053F9602003F050F9222003F0E9
:104CD0004DF9222003F04AF9222003F047F922205F
:104CE00003F044F9222003F041F9C72003F04AF908
:104CF000362003F03BF9ED2003F044F97F2003F068
:104D000035F90F2003F032F9C02003F03BF90F20F2
:104D100003F02CF90B2003F029F90A2003F026F9FF
:104D2000FC2003F02FF9082003F020F9DF2003F026
:104D300029F9002003F01AF9002003F017F90020E8
:104D400003F014F9002003F011F9002003F00EF92C
:104D5000202003F00BF9F32003F014F9742003F082
:104D600005F9B42003F00EF9002003F0FFF800204D
:104D700003F0FCF8002003F0F9F8F72003F002F943
:104D8000822003F0F3F8B12003F0FCF8002003F0D8
:104D9000EDF8132003F0EAF8132003F0E7F8F2200F
:104DA00003F0F0F8802003F0E1F8042003F0DEF8CF
:104DB000402003F0DBF8282003F0D8F8C12003F0EE
:104DC000E1F8172003F0D2F8882003F0CFF888200C
:104DD00003F0CCF8202003F0C9F8E02003F0D2F86B
:104DE000002003F0C3F80A2003F0C0F8122003F0FB
:104DF000BDF8102003F0BAF80E2003F0B7F8202019
:104E000003F0B4F8CC2003F0B1F8072003F0AEF8BB
:104E1000062003F0ABF80B2003F0A8F80E2003F0F7
:104E2000A5F80F2003F0A2F80D2003F09FF815203D
:104E300003F09CF8102003F099F8002003F096F896
:104E4000E12003F09FF8002003F090F80B2003F01E
:104E50008DF8132003F08AF80D2003F087F80E2058
:104E600003F084F81B2003F081F8712003F07EF832
:104E7000062003F07BF8062003F078F80A2003F000
:104E800075F80F2003F072F80E2003F06FF80F2072
:104E900003F06CF8152003F069F80C2003F066F8B5
:104EA000002003F063F82A2003F06CF8002003F0E0
:104EB0005DF8002003F05AF8012003F057F8DF20D6
:104EC00003F054F82B2003F05DF8002003F04EF8B7
:104ED000002003F04BF8032003F048F81F2003F0F4
:104EE00045F83A2003F04EF8552003F03FF83620FD
:104EF00003F048F8002003F039F8112003F042F8DD
:104F00007820FFF71FFB292003F03CF81420FFF75F
:104F100019FB2C2003F036F810BD10B5ED2003F07E
:104F200031F8012003F022F8FE2003F01FF8EE20F4
:104F300003F028F8DE2003F019F8212003F016F81A
:104F4000F12003F01FF8012003F010F8DF2003F038
:104F500019F8102003F00AF8C42003F013F88F208A
:104F600003F004F8C62003F00DF8002002F0FEFF65
:104F7000E22002F0FBFFE22002F0F8FFE22002F064
:104F8000F5FFBF2002F0FEFFAA2002F0EFFFB020E5
:104F900002F0F8FF0D2002F0E9FF002002F0E6FF2A
:104FA0000D2002F0E3FF002002F0E0FF112002F0EC
:104FB000DDFF002002F0DAFF192002F0D7FF002009
:104FC00002F0D4FF212002F0D1FF002002F0CEFF3A
:104FD0002D2002F0CBFF002002F0C8FF3D2002F0A0
:104FE000C5FF002002F0C2FF5D2002F0BFFF0020DD
:104FF00002F0BCFF5D2002F0B9FF002002F0B6FF16
:10500000B12002F0BFFF802002F0B0FF002002F0CC
:10501000ADFF8B2002F0AAFF002002F0A7FF962030
:1050200002F0A4FF002002F0A1FFB22002F0AAFFCC
:10503000002002F09BFF002002F098FF022002F007
:1050400095FF002002F092FF032002F08FFF002066
:1050500002F08CFFB32002F095FF002002F086FFE3
:10506000002002F083FF002002F080FF002002F009
:105070007DFF002002F07AFF002002F077FF002081
:1050800002F074FF002002F071FF002002F06EFFBA
:10509000002002F06BFF002002F068FF002002F009
:1050A00065FF002002F062FF002002F05FFF002099
:1050B00002F05CFF002002F059FF002002F056FFD2
:1050C000002002F053FF002002F050FF002002F009
:1050D0004DFF002002F04AFF002002F047FF0020B1
:1050E00002F044FF002002F041FFB42002F04AFF2A
:1050F0008B2002F03BFF002002F038FF962002F0E8
:1051000035FF002002F032FFA12002F02FFF002027
:1051100002F02CFFB52002F035FF022002F026FF3E
:10512000002002F023FF032002F020FF002002F005
:105130001DFF042002F01AFF002002F017FFB62026
:1051400002F020FF002002F011FF002002F00EFF0D
:10515000B72002F017FF002002F008FF002002F045
:1051600005FF3F2002F002FF002002F0FFFE5E205C
:1051700002F0FCFE002002F0F9FE642002F0F6FED0
:10518000002002F0F3FE8C2002F0F0FE002002F07E
:10519000EDFEAC2002F0EAFE002002F0E7FEDC208B
:1051A00002F0E4FE002002F0E1FE702002F0DEFEDC
:1051B000002002F0DBFE902002F0D8FE002002F07A
:1051C000D5FEEB2002F0D2FE002002F0CFFEDC2064
:1051D00002F0CCFE002002F0C9FEB82002F0D2FEA0
:1051E000002002F0C3FE002002F0C0FE002002F00A
:1051F000BDFE002002F0BAFE002002F0B7FE002043
:1052000002F0B4FE002002F0B1FE002002F0AEFE7B
:10521000BA2002F0B7FE242002F0A8FE002002F01F
:10522000A5FE002002F0A2FE002002F09FFEC12099
:1052300002F0A8FE202002F099FE002002F096FE67
:10524000542002F093FE002002F090FEFF2002F0B6
:105250008DFE002002F08AFEC22002F093FE0A209A
:1052600002F084FE002002F081FE042002F07EFEA7
:10527000002002F07BFEC32002F084FE3C2002F0FE
:1052800075FE002002F072FE3A2002F06FFE002050
:1052900002F06CFE392002F069FE002002F066FE8A
:1052A000372002F063FE002002F060FE3C2002F096
:1052B0005DFE002002F05AFE362002F057FE00206C
:1052C00002F054FE322002F051FE002002F04EFEA9
:1052D0002F2002F04BFE002002F048FE2C2002F0AE
:1052E00045FE002002F042FE292002F03FFE002091
:1052F00002F03CFE262002F039FE002002F036FECD
:10530000242002F033FE002002F030FE242002F0C0
:105310002DFE002002F02AFE232002F027FE0020AE
:1053200002F024FE3C2002F021FE002002F01EFECE
:10533000362002F01BFE002002F018FE322002F0A0
:1053400015FE002002F012FE2F2002F00FFE0020BA
:1053500002F00CFE2C2002F009FE002002F006FEF6
:10536000292002F003FE002002F000FE262002F0B9
:10537000FDFD002002F0FAFD242002F0F7FD0020E0
:1053800002F0F4FD242002F0F1FD002002F0EEFD19
:10539000232002F0EBFD002002F0E8FDC42002F023
:1053A000F1FD622002F0E2FD002002F0DFFD0520A9
:1053B00002F0DCFD002002F0D9FD842002F0D6FDD1
:1053C000002002F0D3FDF02002F0D0FD002002F01A
:1053D000CDFD182002F0CAFD002002F0C7FDA42078
:1053E00002F0C4FD002002F0C1FD182002F0BEFD55
:1053F000002002F0BBFD502002F0B8FD002002F0BA
:10540000B5FD0C2002F0B2FD002002F0AFFD172028
:1054100002F0ACFD002002F0A9FD952002F0A6FDEF
:10542000002002F0A3FDF32002F0A0FD002002F016
:105430009DFDE62002F09AFD002002F097FDC520B8
:1054400002F0A0FD322002F091FD002002F08EFD5E
:10545000442002F08BFD002002F088FD652002F060
:1054600085FD002002F082FD762002F07FFD002005
:1054700002F07CFD882002F079FD002002F076FD2C
:10548000C62002F07FFD202002F070FD002002F017
:105490006DFD172002F06AFD002002F067FD01207B
:1054A00002F064FD002002F061FDC72002F06AFDF9
:1054B000002002F05BFD002002F058FD002002F009
:1054C00055FD002002F052FDC82002F05BFD0020D7
:1054D00002F04CFD002002F049FD002002F046FDE4
:1054E000002002F043FDC92002F04CFD002002F034
:1054F0003DFD002002F03AFD002002F037FD0020C3
:1055000002F034FD002002F031FD002002F02EFDFB
:10551000002002F02BFD002002F028FD002002F008
:1055200025FD002002F022FD002002F01FFD0020DA
:1055300002F01CFD002002F019FD002002F016FD13
:10554000002002F013FD002002F010FDE02002F028
:1055500019FD162002F00AFD002002F007FD1C20B4
:1055600002F004FD002002F001FD212002F0FEFC0B
:10557000002002F0FBFC362002F0F8FC002002F0D4
:10558000F5FC462002F0F2FC002002F0EFFC522075
:1055900002F0ECFC002002F0E9FC642002F0E6FCE2
:1055A000002002F0E3FC7A2002F0E0FC002002F090
:1055B000DDFC8B2002F0DAFC002002F0D7FC992001
:1055C00002F0D4FC002002F0D1FCA82002F0CEFCB6
:1055D000002002F0CBFCB92002F0C8FC002002F051
:1055E000C5FCC42002F0C2FC002002F0BFFCCA20AF
:1055F00002F0BCFC002002F0B9FCD22002F0B6FCA4
:10560000002002F0B3FCD92002F0B0FC002002F030
:10561000ADFCE02002F0AAFC002002F0A7FCF32081
:1056200002F0A4FC002002F0A1FCE12002F0AAFCA0
:10563000162002F09BFC002002F098FC1C2002F0D7
:1056400095FC002002F092FC222002F08FFC00204A
:1056500002F08CFC362002F089FC002002F086FC6F
:10566000452002F083FC002002F080FC522002F072
:105670007DFC002002F07AFC642002F077FC002020
:1056800002F074FC7A2002F071FC002002F06EFC43
:105690008B2002F06BFC002002F068FC992002F0E5
:1056A00065FC002002F062FCA82002F05FFC0020F4
:1056B00002F05CFCB92002F059FC002002F056FC1C
:1056C000C42002F053FC002002F050FCCA2002F07B
:1056D0004DFC002002F04AFCD22002F047FC0020E2
:1056E00002F044FCD82002F041FC002002F03EFC15
:1056F000E02002F03BFC002002F038FCF32002F036
:1057000035FC002002F032FCE22002F03BFC0520D8
:1057100002F02CFC002002F029FC0B2002F026FCF9
:10572000002002F023FC1B2002F020FC002002F0ED
:105730001DFC342002F01AFC002002F017FC44206B
:1057400002F014FC002002F011FC4F2002F00EFCCD
:10575000002002F00BFC612002F008FC002002F0A7
:1057600005FC792002F002FC002002F0FFFB8820FB
:1057700002F0FCFB002002F0F9FB972002F0F6FBA0
:10578000002002F0F3FBA62002F0F0FB002002F064
:10579000EDFBB72002F0EAFB002002F0E7FBC2209D
:1057A00002F0E4FB002002F0E1FBC72002F0DEFB88
:1057B000002002F0DBFBD12002F0D8FB002002F039
:1057C000D5FBD62002F0D2FB002002F0CFFBDD207B
:1057D00002F0CCFB002002F0C9FBF32002F0C6FB74
:1057E000002002F0C3FBE32002F0CCFB052002F016
:1057F000BDFB002002F0BAFB0A2002F0B7FB00203C
:1058000002F0B4FB1C2002F0B1FB002002F0AEFB62
:10581000332002F0ABFB002002F0A8FB442002F092
:10582000A5FB002002F0A2FB502002F09FFB00200D
:1058300002F09CFB622002F099FB002002F096FB34
:10584000782002F093FB002002F090FB882002F009
:105850008DFB002002F08AFB972002F087FB0020DE
:1058600002F084FBA62002F081FB002002F07EFB08
:10587000B72002F07BFB002002F078FBC22002F090
:1058800075FB002002F072FBC72002F06FFB0020C6
:1058900002F06CFBD12002F069FB002002F066FBF5
:1058A000D52002F063FB002002F060FBDD2002F057
:1058B0005DFB002002F05AFBF32002F057FB0020B2
:1058C00002F054FBE42002F05DFB012002F04EFBED
:1058D000002002F04BFB012002F048FB002002F008
:1058E00045FB022002F042FB002002F03FFB2A2091
:1058F00002F03CFB002002F039FB3C2002F036FBBA
:10590000002002F033FB4B2002F030FB002002F0BD
:105910002DFB5D2002F02AFB002002F027FB742003
:1059200002F024FB002002F021FB842002F01EFB89
:10593000002002F01BFB932002F018FB002002F075
:1059400015FBA22002F012FB002002F00FFBB32097
:1059500002F00CFB002002F009FBBE2002F006FB67
:10596000002002F003FBC42002F000FB002002F044
:10597000FDFACD2002F0FAFA002002F0F7FAD32067
:1059800002F0F4FA002002F0F1FADD2002F0EEFA63
:10599000002002F0EBFAF32002F0E8FA002002F017
:1059A000E5FAE52002F0EEFA002002F0DFFA00202E
:1059B00002F0DCFA002002F0D9FA002002F0D6FA58
:1059C000022002F0D3FA002002F0D0FA292002F0DF
:1059D000CDFA002002F0CAFA3C2002F0C7FA0020FB
:1059E00002F0C4FA4B2002F0C1FA002002F0BEFA25
:1059F0005D2002F0BBFA002002F0B8FA742002F039
:105A0000B5FA002002F0B2FA842002F0AFFA0020CA
:105A100002F0ACFA932002F0A9FA002002F0A6FAF4
:105A2000A22002F0A3FA002002F0A0FAB32002F0B4
:105A30009DFA002002F09AFABE2002F097FA0020A8
:105A400002F094FAC42002F091FA002002F08EFADB
:105A5000CD2002F08BFA002002F088FAD32002F069
:105A600085FA002002F082FADC2002F07FFA0020A2
:105A700002F07CFAF32002F079FA002002F076FAC4
:105A8000E62002F07FFA112002F070FA002002F006
:105A90006DFA342002F06AFA002002F067FA56200C
:105AA00002F064FA002002F061FA762002F05EFA59
:105AB000002002F05BFA772002F058FA002002F092
:105AC00055FA662002F052FA002002F04FFA8820C0
:105AD00002F04CFA002002F049FA992002F046FA4E
